:020000040000fa
:080000000001040000000000f3
:020000040000fa
:04000800880200006a
:020000040000fa
:04000c00ca02000024
:020000040000fa
:040010000a030000df
:020000040000fa
:04001400a80200003e
:020000040000fa
:04001800ea020000f8
:020000040000fa
:04001c00d00300000d
:020000040000fa
:04002000d003000009
:020000040000fa
:04002400d003000005
:020000040000fa
:04002800d003000001
:020000040000fa
:04002c00d0030000fd
:020000040000fa
:04003000d0030000f9
:020000040000fa
:040034006403000061
:020000040000fa
:04003800d0030000f1
:020000040000fa
:04003c00d0030000ed
:020000040000fa
:04004000d0030000e9
:020000040000fa
:040044009a0300001b
:020000040000fa
:04004800d0030000e1
:020000040000fa
:04004c00d0030000dd
:020000040000fa
:04005000d0030000d9
:020000040000fa
:04005400d0030000d5
:020000040000fa
:04005800d0030000d1
:020000040000fa
:04005c00d0030000cd
:020000040000fa
:04006000d0030000c9
:020000040000fa
:04006400d0030000c5
:020000040000fa
:04006800d0030000c1
:020000040000fa
:04006c00d0030000bd
:020000040000fa
:04007000d0030000b9
:020000040000fa
:040074002a0300005b
:020000040000fa
:04007800d0030000b1
:020000040000fa
:04007c00d0030000ad
:020000040000fa
:04008000d0030000a9
:020000040000fa
:04008400d0030000a5
:020000040000fa
:04008800d0030000a1
:020000040000fa
:04008c00d00300009d
:020000040000fa
:04009000d003000099
:020000040000fa
:04009400d003000095
:020000040000fa
:04009800d003000091
:020000040000fa
:04009c00d00300008d
:020000040000fa
:0400a000d003000089
:020000040000fa
:0400a400d003000085
:020000040000fa
:0400a800d003000081
:020000040000fa
:0400ac00d00300007d
:020000040000fa
:0400b000d003000079
:020000040000fa
:0400b400d003000075
:020000040000fa
:0400b800d003000071
:020000040000fa
:0400bc00d00300006d
:020000040000fa
:0400c000d003000069
:020000040000fa
:0400c400d003000065
:020000040000fa
:0400c800d003000061
:020000040000fa
:0400cc00d00300005d
:020000040000fa
:0400d000d003000059
:020000040000fa
:0400d400d003000055
:020000040000fa
:0400d800d003000051
:020000040000fa
:0400dc00d00300004d
:020000040000fa
:0400e000d003000049
:020000040000fa
:0400e400d003000045
:020000040000fa
:0400e800d003000041
:020000040000fa
:0400ec00d00300003d
:020000040000fa
:0400f000d003000039
:020000040000fa
:0400f400d003000035
:020000040000fa
:0400f800d003000031
:020000040000fa
:0400fc00d00300002d
:020000040000fa
:04010000d003000028
:020000040000fa
:04010400d003000024
:020000040000fa
:04010800d003000020
:020000040000fa
:04010c00d00300001c
:020000040000fa
:04011000d003000018
:020000040000fa
:04011400d003000014
:020000040000fa
:04011800d003000010
:020000040000fa
:04011c00d00300000c
:020000040000fa
:04012000d003000008
:020000040000fa
:04012400d003000004
:020000040000fa
:04012800d003000000
:020000040000fa
:04012c00d0030000fc
:020000040000fa
:04013000d0030000f8
:020000040000fa
:04013400d0030000f4
:020000040000fa
:04013800d0030000f0
:020000040000fa
:04013c00d0030000ec
:020000040000fa
:04014000d0030000e8
:020000040000fa
:04014400d0030000e4
:020000040000fa
:04014800d0030000e0
:020000040000fa
:04014c00d0030000dc
:020000040000fa
:04015000d0030000d8
:020000040000fa
:04015400d0030000d4
:020000040000fa
:04015800d0030000d0
:020000040000fa
:04015c00d0030000cc
:020000040000fa
:04016000d0030000c8
:020000040000fa
:04016400d0030000c4
:020000040000fa
:04016800d0030000c0
:020000040000fa
:04016c00d0030000bc
:020000040000fa
:04017000d0030000b8
:020000040000fa
:04017400d0030000b4
:020000040000fa
:04017800d0030000b0
:020000040000fa
:04017c00d0030000ac
:020000040000fa
:04018000d0030000a8
:020000040000fa
:04018400d0030000a4
:020000040000fa
:04018800d0030000a0
:020000040000fa
:04018c00d00300009c
:020000040000fa
:04019000d003000098
:020000040000fa
:04019400d003000094
:020000040000fa
:04019800d003000090
:020000040000fa
:04019c00d00300008c
:020000040000fa
:0401a000d003000088
:020000040000fa
:0401a400d003000084
:020000040000fa
:0401a800d003000080
:020000040000fa
:0401ac00d00300007c
:020000040000fa
:0401b000d003000078
:020000040000fa
:0401b400d003000074
:020000040000fa
:0401b800d003000070
:020000040000fa
:0401bc00d00300006c
:020000040000fa
:0401c000d003000068
:020000040000fa
:0401c400d003000064
:020000040000fa
:0401c800d003000060
:020000040000fa
:0401cc00d00300005c
:020000040000fa
:0401d000d003000058
:020000040000fa
:0401d400d003000054
:020000040000fa
:0401d800d003000050
:020000040000fa
:0401dc00d00300004c
:020000040000fa
:0401e000d003000048
:020000040000fa
:0401e400d003000044
:020000040000fa
:0401e800d003000040
:020000040000fa
:0401ec00d00300003c
:020000040000fa
:0401f000d003000038
:020000040000fa
:0401f400d003000034
:020000040000fa
:0401f800d003000030
:020000040000fa
:0401fc00d00300002c
:020000040000fa
:100200004f0c21000e7f24000e018800000000002a
:10021000000020000000e000020032000001200089
:100220002002880014000700730107000000e000ae
:1002300003003a00003028000100200002003700cf
:100240000000200001002000810f7000010032003a
:1002500014000700000020000000e000020032004f
:1002600000000200000000001290020000000000e8
:100270000040da000000fe004440a9000017200002
:100280000000e00003003200002020009001880000
:100290004440a800000006008a1f78008b1f7800e9
:1002a00000000600a1028800800478000000eb0036
:1002b0001f003700e284440054a0b4009905ba003e
:1002c000e284440054a0b4009906ba00e2844400d9
:1002d00054a0b4000006eb00476fde00fd07b2003b
:1002e000ae018800636ce10003003a00eaff0700fa
:1002f0000000eb000e003700606ce10008003a00df
:10030000004deb000a05e800020039003420ec0043
:100310000af0a0008b05e900f9ff3e000400370059
:100320006168e100010032000086eb000b0007006d
:1003300019c7ba001905ba000e04e00003003a001c
:100340000a00e000dbff3a0000000600fe07b200f2
:10035000ae0288008a047800f5ff37000cd0a300b5
:10036000e20f4d001c00390089027800354dba00bb
:100370000a05e800020039003420ec000af0a00071
:100380008b05e9000f003200254dba000a05e80090
:10039000020039003420ec000af0a0008b05e900cf
:1003a000080032000c00e0000600320015cdba0053
:1003b0000a05e800020039003420ec000af0a00031
:1003c0008b05e9008984e80054a0b4000b00e0002c
:1003d000e2ff3a00000006009902ba00055d7800cd
:1003e0008b05e900f7ff3200c82ade00055d7800c2
:1003f0008b05e900f3ff32000c00e000f1ff320052
:1004000019ddba00eeff3700e088040000000000ac
:1004100072910400000000003e890400000000000a
:1004200058890400000000008a89040000000000d0
:10043000b889040000000000e88904000000000002
:10044000f4890400000000001a8a04000000000083
:10045000fe89040000000000047204000000000097
:100460003c6e040000000000b874040000000000ae
:100470006874040000000000c6740400000000005e
:10048000f8740400000000009a73040000000000eb
:100490007c21040000000000862104000000000010
:1004a000ba21040000000000c62104000000000082
:1004b000d021040000000000268a04000000000093
:1004c000ac44040000000000ba3504000000000045
:1004d0005a7f0400000000006e8c04000000000041
:1004e000a28d0400000000005a8e040000000000ed
:1004f0002286040000000000ce140400000000006a
:10050000420f0400000000002e050400000000005f
:100510003600f800809fbe00829fbe00849fbe0010
:10052000869fbe000000fa008020a9000000eb00ba
:10053000894707000080fa004f03be004f02be004b
:100540004f01be004f00be003600f900004006001b
:100550003600f800809fbe00829fbe00849fbe00d0
:10056000869fbe000000fa00804707008040a90077
:1005700010002000784707000080fa004f03be00fb
:100580004f02be004f01be004f00be003600f90012
:10059000004006003600f800809fbe00829fbe002b
:1005a000849fbe00869fbe000000fa008060a90004
:1005b00020002000684707000080fa004f03be00bb
:1005c0004f02be004f01be004f00be003600f900d2
:1005d000004006003600f800809fbe00829fbe00eb
:1005e000849fbe00869fbe000000fa008080a900a4
:1005f00030002000584707000080fa004f03be007b
:100600004f02be004f01be004f00be003600f90091
:10061000004006003600f800809fbe00829fbe00aa
:10062000849fbe00869fbe000000fa008600a900dd
:1006300070002000484707000080fa004f03be000a
:100640004f02be004f01be004f00be003600f90051
:10065000004006003600f800809fbe00829fbe006a
:10066000849fbe00869fbe000000fa0050048000f8
:10067000680060000000e0000c0032008133800060
:1006800000002100008060000000e0000600320051
:10069000d04480000000e00002003200d04480001e
:1006a000000001007186a9008a60a9000080fa009c
:1006b0004f03be004f02be004f01be004f00be0000
:1006c0003600f900004006003600f800809fbe00aa
:1006d000829fbe00849fbe00869fbe000000fa007d
:1006e000e04480000000e00002003200e0448000ae
:1006f00000000100f00b2100104078008040e8006d
:10070000f00b210001487800e00b210011c0b3007c
:10071000014878008860a9000080fa004f03be00fd
:100720004f02be004f01be004f00be003600f90070
:10073000004006003600f800809fbe00829fbe0089
:10074000849fbe00869fbe000000fa00f044800037
:100750000000e00002003200f044800000000100d0
:10076000100c2100104078008040e800100c21009f
:1007700001487800000c210011c0b3000148780046
:1007800088e0a9000080fa004f03be004f02be00bf
:100790004f01be004f00be003600f90000400600c9
:1007a0000040da000000fe000800fa001007980080
:1007b0002107980032079800be009000010f7800d2
:1007c000070037002e00900010407800ae00900027
:1007d0008100e800210798006b4407001e0fe90024
:1007e0001e0078000000e000f6ff3a003e00900096
:1007f0000080fa0000000600000005000000fa007a
:1008000068815700cfb89700907c80001000780076
:10081000770507000080fa00000006002904370071
:100820000000fa0068815700cfb89700907c8000e4
:10083000100078006e0507000080fa000000060036
:10084000b6000700ea0307009b040700c304070083
:100850001c04070008060700b30537000000fa0073
:1008600068815700cfb897006f0507000080fa0035
:1008700000000600030107008c05370080017800a6
:1008800002003700b15978000201e9000200e000df
:10089000fcff3a0000000600889fbe008a9fbe0051
:1008a000800478000200e0005b0032000140780024
:1008b000814c780082814400f1f99f00e20f5100e1
:1008c0005500360091449800a1449800e1f99f003a
:1008d000d1f99f00e60f51004f003600b144980057
:1008e000c1f99f00e80f51004b0036000905ea00ee
:1008f000630565000a8444000a055100c1ff2f000a
:10090000010565000080fb008000eb001210200054
:100910001310200092090700008cbe000a01440059
:1009200060b99f0071b99f00e80f55003a0036008a
:100930002004980031049800400498005104980065
:1009400020b99f0031b99f0040b99f0051b99f0065
:10095000f80f5500300036006004980071049800cc
:10096000000c9800110c9800200c9800310c980095
:10097000400c9800510c980020b19f0031b19f00ad
:1009800040b19f0051b19f0060b19f0071b19f00c5
:1009900000b99f0011b99f00640164007801410013
:1009a00002044400020555006011b8000203be00b5
:1009b0000002be000403be006022b8000000720006
:1009c0008180720002017300838173001000370080
:1009d000009cbe000294be004004980051049800a0
:1009e0006204980073049800000c9800110c9800a1
:1009f000220c9800330c9800400c9800510c980081
:100a0000620c9800730c98000a02b1000802b00052
:100a1000ff0f5500eeff3e00090078004f05be00b5
:100a20004f04be0000000600917c80009100780019
:100a300036080700110020000000e0000500350026
:100a4000907c800090007800a000200078080700cb
:100a5000cf00de000100ea000000060000000600f2
:100a600080f9200000000600fdff0700b07c880030
:100a7000a07c880000000600889fbe000004be0025
:100a8000080078000d00070000004400890078008d
:100a900003000700080078004f04be0000000600b5
:100aa000881f7800000478000800780061080700bb
:100ab000080078004f0478000000060080007800ed
:100ac000040037003104e00002003a000000510049
:100ad00000000600010178000108a300f9ff3a00b8
:100ae0008101780031017800f4ef2f00020242000a
:100af0000281ea000201620004082800040161008a
:100b0000f7ff320083007800010178003104e00033
:100b1000fdff3a000000510000000600ec8747008e
:100b2000889fbe008a9fbe008c9fbe008e1f7800eb
:100b3000000678000104780018079000280590004e
:100b400098067800cdb79f00b80590003202be002d
:100b50002203be000400be000601be004f18de00e6
:100b60006011b8008000eb00d0b79f00e1b79f0094
:100b7000f2b79f0083bf9f00800478000900e00067
:100b8000060032006000b8006011b8000402500096
:100b90008582580006035900878359000e00e00043
:100ba000020035000d10a100cdb79f000900e00044
:100bb00005003a004fb097000028a30002003a0059
:100bc0000038a300020032008a00e900010037006b
:100bd0008a007800f8815700a20020000800780001
:100be000620307000900e00003003a00cfb097005d
:100bf0000128a300080032000000e9000081450040
:100c0000b1c2b3000900e00001003200d1c2b3005c
:100c100001497800050037000138a30003003200c5
:100c20000000e90001c2b30081757800480190001e
:100c30000201e90000015100808045004fb2970099
:100c40008a0178000c007800560507009c0090008f
:100c50000188a3000400320098009000810f50002a
:100c600001003d00010078004f0778004f06be00ec
:100c70004f05be004f04be00cf00b10000000600cb
:100c8000000006004200fa00889fbe008a9fbe0056
:100c90008c9fbe0020079800110f9800034f98000a
:100ca00011007800400f980091009000610f9800ab
:100cb0009e099000a3019000330f98001e0a900037
:100cc00044029000140798009e0a9000b50290001c
:100cd000052798003204be002205be006022b8003d
:100ce0006033b8000800be000a01be0032080700e9
:100cf0000000e00003003d000bf0a200d0c2b300f2
:100d0000040037004e0b90000628a30009003200b3
:100d1000b0c2b3008e239000804b78003e08900054
:100d20000000e900700f980011002000510f98009a
:100d3000100037004e0990000238a300090032006d
:100d400000c2b3008e219000804978003e0a9000d6
:100d50000402e900740f980015002000550f980058
:100d6000040037003e0b9000760f98008003eb00e4
:100d7000570f98000800be000a01be00c0ff070020
:100d8000f4ff2f00f5ff2f00f6ff2f00f7ff2700dd
:100d900004026000858260000603610087836100b1
:100da0006000b8000200200003ff27000020e100df
:100db00001a8e10002b0e10003b8e10011003a002f
:100dc0000e4890008000fb001104b1000e2190003d
:100dd000de09900003004100f98f500002003e0040
:100de0000109210001003700410921002cff070003
:100df0004009210031ff07005e0a90000401400015
:100e0000150037000020e10001a8e10002b0e10078
:100e100003b8e100130036008e4a90008500fb0005
:100e20001104b1000e239000de0b90000700430078
:100e3000f98f500002003e008109210001003700b7
:100e4000c109210016ff0700c00921001bff070090
:100e5000de089000010140004e0a9000be0990009b
:100e6000500237006022b8006033b8000800be00ae
:100e70000a01be00d00707000000e0006a0032004f
:100e80006022b8000600200007ff230044179800e6
:100e90005517980066179800771798008006eb00a2
:100ea0000800be000a01be00001f9800111f980034
:100eb000221f9800331f98000e269000070037006d
:100ec0008d06e8000802be000a03be004417980021
:100ed0005517980066179800771798006022b80099
:100ee00006002000470224004e109000de10900003
:100ef0006e119000fe1190001f0907000004be0053
:100f00000205be000002be000203be000e189000e3
:100f10009e1890002e199000be199000a607070099
:100f20000000e000e6ff3d000c2798000006eb0003
:100f30004e149000de1490006e159000fe15900087
:100f40002500370040ed2f00808f560019003d002e
:100f50000c00e00016003a006022b80006002000f5
:100f6000073524000e1890009e1890002e1990004e
:100f7000be199000000907000002be000203be0077
:100f8000041f9800151f9800261f9800371f98000f
:100f90006022b80006002000073524000800be00cb
:100fa0000a01be00f40807000004be000205be00ee
:100fb0001c0020006022b800060020004702240028
:100fc0000800be000a01be003c0807000004be0085
:100fd0000205be008d06e9000802be000a03be003d
:100fe0000e1890009e1890002e199000be199000c7
:100ff000710707000000e000d2ff35000800be00c6
:101000000a01be0040179800511798006217980017
:10101000731798000e1c90009e1c90002e1d9000cf
:10102000be1d9000080037006022b80006002000b6
:1010300007ff23004417980055179800661798007b
:10104000771798008006eb008e4a90000500fb00a1
:1010500022070700104f98006e0b900060002000e0
:101060000600e000010035006e08900071c6b30074
:101070009e4b900081cf53000a003a00ee0890008a
:101080000100e000cf013200cf0137008d0f50008a
:10109000d3013c00001f980052c6b300425f980085
:1010a0001e0037009e499000435f98000200370001
:1010b00064c6b300445f98000000e800001f980079
:1010c00060c6b300ce5a900080cf520013003a00a1
:1010d0000d00e00008003d006000b80002002000a4
:1010e00003ff2300401798005117980062179800db
:1010f000731798008006eb0061c6b300415f98004b
:1011000070c6b3001e499000804f510003003200aa
:101110008e1990008d814100031f98004e1290009f
:10112000de1290006e139000fe139000441f980092
:10113000551f9800661f9800771f98000800be0092
:101140000a01be0000179800111798002217980096
:10115000331798000006eb000802be000a03be0029
:10116000540798006507980076079800070f9800c5
:10117000310037004e1a9000de1a90006e1b90006e
:10118000fe1b90000e1090009e1090002e119000fb
:10119000be119000c9070700230b07000004be0022
:1011a0000205be002d07070080027800250f980079
:1011b0004e1a9000de1a90006e1b9000fe1b9000ed
:1011c0000800be000a01be006b0807000e12900066
:1011d0009e1290002e139000be1390006607070029
:1011e0000002be000203be0007f0a2000417980030
:1011f0001517980026179800371798006022b80036
:1012000006002000470224004e189000de189000cf
:101210006e199000fe199000a80707000002be009a
:101220000203be00441f9800551f9800661f9800d7
:10123000771f98000c06e8008e1a9000850f560064
:10124000ccff35005e049000ee0490007e05900017
:101250008e0d90006022b800060020004701240097
:101260004e189000de1890006e199000fe19900044
:10127000410807000002be000203be00441f9800a0
:10128000551f9800661f9800771f98000e10900059
:101290009e1090002e119000be119000c60607000f
:1012a0000000e0000f0035004e1a9000de1a90009a
:1012b0006e1b9000fe1b90000e1090009e10900080
:1012c0002e119000be119000bb0607000000e00048
:1012d00011003a00ae0a90000508a3000800320091
:1012e0000d0037006000b8006011b800401f980082
:1012f000511f9800621f9800731f98000600370066
:101300006022b8006033b800441f9800551f980051
:10131000661f9800771f98004e1a9000de1a900002
:101320006e1b9000fe1b90000800be000a01be006c
:10133000170707000002be000203be000417980052
:101340001517980026179800371798006022b800e4
:1013500006002000470224004e109000de1090008e
:101360006e119000fe119000030807000004be00fb
:101370000205be000002be000203be000e10900077
:101380009e1090002e119000be1190008f06070055
:101390000000e000090035008d06e80060c6b300db
:1013a000ce5a900080cf520008003a000e1b9000e9
:1013b0000603e800061f9800110037004e14900045
:1013c000de1490006e159000fe15900050c6b3001c
:1013d0004e599000804f510009003a000802be00ab
:1013e0000a03be00441f9800551f9800661f98000e
:1013f000771f98008002eb00451798000700370020
:101400000800be000a01be00401f9800511f98004e
:10141000621f9800731f98004d1798005e0e900091
:101420000001eb00220f9800320798005207980045
:101430000d0f78006a0037004e1a9000de1a9000f7
:101440006e1b9000fe1b90000e1090009e109000ee
:101450002e119000be11900018070700720a0700b5
:101460000004be000205be007c060700e90f500024
:101470000100340090002000ce0990000348a30032
:101480000c003a000000e0000a003a0071c6b30008
:101490001e4a9000814f520006003a00ce12900082
:1014a0000500e00003003d002e0b90008606e800da
:1014b00023003700be0390000700e0000c003a0054
:1014c000ce1090000100e00009003d00e1c2b30031
:1014d0000e21900001717e000c06e800fe099000cc
:1014e0008301e900730f980014002000340798006e
:1014f0008e2290000c814200ae0e90008501780093
:101500000300370001c3b300015978008d06e900dc
:101510000d00e000fbff3a00032798002e0b90001f
:10152000060646000043b00080717e000c06e8000d
:101530000680ea00fe0b900080834300770f98003e
:101540004e1a9000de1a90006e1b9000fe1b900059
:101550000800be000a01be00870707000e129000b7
:101560009e1290002e139000be139000820607007a
:101570000002be000203be0007f0a200041798009c
:101580001517980026179800371798006022b800a2
:1015900006002000470224004e189000de1890003c
:1015a0006e199000fe199000c40607000002be00ec
:1015b0000203be00441f9800551f9800661f980044
:1015c000771f9800ce1290008502e9004517980019
:1015d0005e0390000603e800560798002d0f980060
:1015e000de0390000e189000808f530005003d0030
:1015f0009e0890004100900065005000800f56004a
:101600008dff39009e0678003e0190000200e00048
:1016100007003a00ce0990000348a30004003200fe
:10162000e0c2b3000e22900000727e000c06e800bb
:101630008e2290000c8042000048eb0051c6b3009f
:101640004e5b9000814f530038003a009e0390009b
:101650008700e9000041eb0082f278008001eb0096
:101660000d00e00002003d008d06ea00130020009e
:101670002200200001037800fe0a90008e239000d3
:10168000000478000a00370001037800a40020005d
:10169000110009008406d800010278008006780055
:1016a0000443b00084737b000201e9008502e90075
:1016b0008600e9000d00e000f3ff3a000200e000c0
:1016c000f1ff3c00750f980007279800080078008c
:1016d00001824300b2c2b3000300e0000100320007
:1016e000d2c2b300024a78000101e9008e219000c5
:1016f000828041008e4a90000502fb001404b10074
:1017000053c6b300f90f520001003e0053c4b300aa
:10171000834878007e0b90000683e900760f9800de
:10172000820f560001003d00ddfc0700ce0b90004b
:1017300063806300e20f500015003a007e089000bd
:101740000000e000120034000e209000dbfc0700d7
:101750008e219000040037007e09900082804100b5
:10176000e37078000000e900de0a9000850f500069
:10177000f9ff3d0003279800058041007e09900095
:101780000103200044fc07000003eb00360f980023
:101790000e209000c9fc07004e0a9000be09900080
:1017a000000178008e2090002e0090007d0207003e
:1017b0004f06be004f05be004f04be000080fa0079
:1017c0000000060010002000e48f46002ffe3d00c0
:1017d000001f980057c6b300475f98004ffe3700c0
:1017e0000d00e00032fe3500001f980042fe370079
:1017f0000200fa00889fbe008a9fbe008005780024
:10180000010478000200780018019000280590007b
:1018100098007800b1bf9f00b80490000200e0007b
:10182000020035000110a100b1bf9f00ea815700fe
:10183000820020008a0078003002be002003be0033
:1018400008007800490007003fb99700f0006100e8
:10185000030032000000e90001c3b3008174780086
:101860003fb99700e8006100030032000000e90082
:1018700001c2b30081747800480190000201e900c0
:1018800000015100808044003fba97008a0178002f
:101890000b007800430207009b0090000188a30022
:1018a0000400320098009000810f500001003d00bc
:1018b000010078004f05be004f04be000080fa0012
:1018c00000000600ea874700889fbe008a9fbe008e
:1018d0008e1f78000004780003007800728757009c
:1018e00084e2260055c72600049fbe00c39622004e
:1018f000030f78006c875700004feb001105900034
:10190000a1049000910578000200e000020032007e
:101910000207780001003700728757000000e000de
:1019200002003a000e00780064fc07000a00e000a4
:10193000030035008a0f5000010036000a007800cd
:101940000b02780089017800000178008e00780091
:1019500008007800130207004f0778004f05be000b
:101960004f04be00af00b10000000600f48747003e
:10197000889fbe008a9fbe008c9fbe008e1f78008d
:101980000605be000404be0081bf9f0082b79f0011
:10199000f3b79f00b0009000e1b79f0013017800fb
:1019a00092b79f0090069000400090000000e90070
:1019b000000678000d00e00001003d001d00200041
:1019c0008040eb00efb19700817178001e0020008d
:1019d0001f0037000c06e9000fb09700cf80de0033
:1019e0006109b900a0b79f00b1b79f00c2b79f00bf
:1019f000d3b79f000203be000002be000800be0075
:101a00000a01be001d080700000778000e4078009c
:101a10000043b000efb0970080707e008d06e900b3
:101a20000fb997000201e90082bf9f002fb2970013
:101a3000bfb297004fb39700dfb397000800be0016
:101a40000a01be00060807000205be000004be0031
:101a50000c00e0000d003400e00f5400e08f5c004b
:101a6000e00f5d00e08f5d00daff3a000d00e0005e
:101a7000d8ff3c008fb997000300e000030034005a
:101a80001fb097000018a300d2ff3a000e00e0003c
:101a900002003a00ffb097001140a1000c0078004e
:101aa0004f0778004f06be004f05be004f04be0032
:101ab0004f01b100000006000200fa00889fbe003e
:101ac0008a9fbe00000578000104780002007800bb
:101ad00018019000a804900098007800b1bf9f0002
:101ae000b80590000200e000020035000110a100de
:101af000b1bf9f00ea815700a20020008900780052
:101b00003002be002003be000800780097ff0700e7
:101b1000480190000201e900000151008080450069
:101b20003fba9700890178000a0078009d010700fc
:101b30009a0090000188a3000400320098009000f1
:101b4000810f500001003d00010078004f05be00ec
:101b50004f04be000080fa0000000600fa8747002c
:101b6000889fbe008a9fbe008c9fbe008e1f78009b
:101b70008004780001047800820578001801900044
:101b80002805900018077800b80090000200e000d7
:101b9000020035000e10a1000100370012002000e5
:101ba00070006700e0b79f00090032003b02be00f2
:101bb0002b03be00e00f5200e08f5a00e00f5b00e5
:101bc000e08f5b00020032008a86e90001003700e6
:101bd0008a067800e8026700f5b79f00010032002e
:101be0008d06e9003b02be002b03be00e4af9f0060
:101bf000f5af9f0086b79f0097b79f0048069000fb
:101c00000c06e9000040eb0080707e00efb2970008
:101c10007fb297008903780081047800d8af9f00d5
:101c2000020478008bbf9f008a0578000345780086
:101c30002a0037000c06e9006fab97006f006300c5
:101c4000e90f500002003c000003b0000100370023
:101c50007005b0000a03fb001604b100f90f530031
:101c60000c003e00000378000650a0001606b100ec
:101c7000f90f530007003e00b4b79f00a5b79f00bf
:101c8000c7b79f001c040700cfb39700afb29700ff
:101c90003fb2970080747e000804e9008d06e900d9
:101ca0006fa89700ffa897000fb197009fb197000a
:101cb000460020008301d1000281d3008180d3003f
:101cc0000080d3000603e900faff3a00e0af9f006e
:101cd000f1af9f0082b79f0093b79f00e10f5600be
:101ce0000f0034006fa89700ffa897000fb197006e
:101cf0009fb19700e00f5000e08f5800e00f5900af
:101d0000e08f5900cbff3a000800e000c9ff3c001b
:101d10000d00e000020034000e18a300c5ff3a00d9
:101d200089007800f4b79f00870478005fac9700c3
:101d30008a4178000b0578008fbd97000500e00010
:101d4000100032003b02be002b03be00e4af9f0038
:101d5000f5af9f0086b79f0097b79f00e00f520036
:101d6000e08f5a00e00f5b00e08f5b00050032005f
:101d70000c06e90083707e000c06e90000c3b30086
:101d800080707e00ffb297000500e0000300320083
:101d90000c06e90000c2b30080707e00480190008c
:101da0000201e9000c0151008c8040000e02780015
:101db0008a01780009007800fa0007009900900075
:101dc0000188a3000400320098009000810f5000a9
:101dd00001003d00010078004f0778004f06be006b
:101de0004f05be004f04be00af01b1000000060069
:101df0000200fa00881f780000047800e2bf9f000c
:101e00006481570008007800a50207009800900040
:101e10000148a300010032000080eb004f0478006d
:101e20000080fa00000006008201780001017800bd
:101e3000f1ff2700bb033700889fbe000004780035
:101e40004800900082047800808f54000100360022
:101e500080047800090178005800900087fa070094
:101e6000580090000900400050049800c8009000fd
:101e700089845000490498000048eb004f04be00dc
:101e8000000006001000780047fa3700900190002b
:101e90000388a30001003200e7ff37000348a300d6
:101ea00001003a00f7ff070000000600881f7800d5
:101eb0000004780000082000808f500017003500d3
:101ec00010082000808f50000b00340030082000e4
:101ed000808f500011003a00920078006880500016
:101ee000000978003002be002003be00049cbe0042
:101ef0000694be000700370092027800648052000a
:101f0000000978001000be00b5030700009cbe0069
:101f10000294be0010002000010037000000eb001a
:101f20004f0478000000060084082000848f5000d1
:101f30001d0032000d003c0014082000848f50006a
:101f40002700320002003c00040820000400370093
:101f500024082000848f5000340032004408200000
:101f6000848f500043003a0036003700040a2000f6
:101f7000848f50002700320004003c000409200038
:101f8000848f50003b003a0028003700020c2000ec
:101f9000828f50002f003200020f2000828f5000ed
:101fa00034003a002b0037009380e9000200e00083
:101fb00005003200810978001102fb00cfa2de008b
:101fc000612bb900280037008109780011427800a0
:101fd0000482fb008002eb006033b800220037006f
:101fe00013027800e40052000200e0000500320015
:101ff000810978001102be004fabde008603780035
:1020000019003700810978001102be006033b80062
:10201000150037009380e9008109780011027800eb
:10202000cfa2de00612bb9000f00370093027800c9
:10203000e8805200810978003102be002103be0011
:10204000090037009380e9000200e000020032003e
:10205000f1ff37009380e9008109780011027800d0
:102060008002eb006033b8000498be000690be000a
:10207000100005000000050044082000848f500077
:102080002500320008003c0014082000848f500016
:102090001400320024082000848f500024003200f5
:1020a000040820000c00370004092000848f500031
:1020b0001f00320004003c0084082000848f500080
:1020c00024003a000e003700040a2000848f5000dc
:1020d00011003200040c2000848f50001d003a00d3
:1020e0000d0037009380e9008109780091007800a5
:1020f00001087800cf91de008288be00140037000e
:102100009380e90081097800910078000108780047
:10211000824878000e0037009380e900810978003a
:1021200091007800010878008208780008003700e4
:102130009380e90081097800910078000108780017
:102140006112b900612bb9008498be008690be0070
:102150001000050000000500889fbe000004780004
:102160004800900082047800808f540001003600ff
:10217000800478000901780058009000bff907003a
:10218000580090000900400050049800c8009000da
:1021900089845000490498000048eb004f04be00b9
:1021a00000000600f2874700889fbe008a9fbe009d
:1021b0008c9fbe008e1f7800800478000105780097
:1021c00002047800830578006107620002003a008b
:1021d0008b0f540008003900080178008a0078004d
:1021e0000900780029ff07008b0f54000200390016
:1021f000880578001e003700088655000c0178001d
:10220000f00f5600010036000201200001022000fc
:102210007e805700a0f907008c0678000500370083
:1022200002012000fe8057000900780017ff070018
:10223000f0865600ef8f5600f9ff3e004461de0045
:1022400000ff2f000091b90002014600fe805700f8
:10225000090078000dff07000e00e00004003a00be
:10226000080178008a0078000900780007ff07005d
:102270000b0078004f0778004f06be004f05be00e8
:102280004f04be002f01b100000006000000050051
:102290000000050000000500000178000040eb0090
:1022a0008080fb0081804000a306210063c278008b
:1022b0000404e00003003a00b006210060c078008a
:1022c0000000060092017800934f520004003a008b
:1022d000b006210060c078000309e8000100370063
:1022e0000040e800ea4f5000edff36000000060015
:1022f000f6874700889fbe008a9fbe008c9fbe0065
:102300008e1f7800000578000104780083057800ae
:10231000040678000000eb00c0b79f008080eb004f
:10232000d1b79f00e0b79f00f2b79f0000082000e0
:1023300080bf9f0098007800010078008004eb00c7
:10234000010037008904e800304178000204e00011
:102350000300320053c2b300834f5100f9ff3a002b
:102360000900e00004003200090178000a0078004a
:10237000c6fe0700188c44001807780050c2b3004e
:102380009e4f10003f013a000e07e8000e0c780047
:1023900010003700cfb097000100a0000b003700fd
:1023a000cfb097000110a00008003700cfb0970011
:1023b0000120a00005003700cfb097000130a00039
:1023c00002003700cfb097000140a000c1b79f00c6
:1023d000000ce8001800780090407800b2c2b3000a
:1023e00082cf5000f1ff320007003c0002c2b30070
:1023f00082cf5000f0ff320032c2b30082cf5000d3
:1024000007003a00efff3700d2c2b30082cf50007e
:10241000e0ff320002c3b30082cf5000e0ff320081
:10242000a2c2b30082cf50000d003a00000ce800b9
:102430001c80e900000e780010007800e0b79f00d3
:102440000000e0000f003d00cfb097000100a200a7
:10245000c1b79f000000ea00e0b79f000900370005
:1024600084010700e0b79f0001003700000ce8007e
:10247000180078009000fb000103b100e98f5000c4
:10248000faff36004fb097000008a30002003200a8
:102490000010a100c0b79f0018007800e1c2b3008f
:1024a00090cf100016003a008000eb00d1b79f00db
:1024b0000000e800000c7800a1c2b30090cf10002b
:1024c00006003a00000ce8001c80e900000e7800cd
:1024d00010007800d0b79f000900370065010700a1
:1024e000d0b79f0001003700000ce800180078000a
:1024f0009000fb000103b100e98f5000faff3600a5
:102500000800780064ff0700804678001800780013
:102510001000fb00f101070091062000810f500020
:102520003800320012003c0041062000810f5000ac
:10253000340032000a003c0011062000810f5000d8
:102540002000320031062000810f5000a000320030
:1025500051022000810f5000bc003a00b400370047
:1025600071062000810f5000b8003c008800370041
:1025700001072000810f50005c00320007003c0082
:10258000e1062000810f50007a003200f1062000a1
:10259000810f5000ad003a0039003700510720008c
:1025a000810f50002700320081072000810f50006a
:1025b0004200320031072000810f5000a3003a0092
:1025c0008f0037008d80fb000c01780000fe2f008b
:1025d0000f00400035fe07000000e000a8003200b8
:1025e00018007800000ce8009041780002fe2f00ef
:1025f0000f014100f88057000a00780024ff07000f
:102600000e0037008d80fb008c0178001200200046
:1026100000fe2f000f00400043fe07000000e00016
:1026200097003200180ce80002fe2f000f01410055
:10263000f88057000a00780038f9070080844400c9
:10264000900037008d80fb008c0178000001eb00ca
:1026500000fe2f000f00400033fe07000000e000e6
:1026600087003200180ce80002fe2f000f01410025
:10267000f88057000a0078000ffd0700efff3700d1
:102680008d80fb008c0178000001eb0000fe2f0024
:102690000f00400024fe07000000e0007800320038
:1026a000180ce80002fe2f000f014100f8805700cf
:1026b0000a0078004efc0700e0ff37008d80fb0029
:1026c0008c0178000001eb0000fe2f000f0040009d
:1026d00015fe07000000e0006900320018007800d5
:1026e000000ce800904178001c0037008c01780055
:1026f0000001eb00010f200000fe2f000f00400042
:1027000009fe07000000e0005d003200180ce80040
:102710000fb097009fb097002fb19700bfb19700ff
:10272000e00f5000e08f5800e00f5900e08f590093
:1027300009003a00cfb597006fb49700200621003a
:10274000def807000b0278008801780000017800ad
:10275000210621004700370083c7b30002fe2f0087
:102760000f014100f88057000a007800fbfc0700c9
:10277000b2ff37000b8144008d80fb008c01780094
:1027800000fe2f000f0040003bfe07003c0037001a
:102790008d80fb000c01780000fe2f000f00400030
:1027a000c2fd07000000e00035003200180078008c
:1027b000000ce8009041780002fe2f000f0141005c
:1027c000f88057000a0078002ef907009bff3700b9
:1027d00000c8b30080cf560029003a00180ce8006a
:1027e0001c80e900000e780010407800e0df9f00b8
:1027f00013002000e2fd2f000f0141000800370008
:1028000000c8b30080cf56001d003a00180ce80045
:102810001c80e900000e78008001eb0010017800b8
:10282000f88057000a00780026fc070083ff370075
:1028300000c8b30080cf560011003a00180ce80021
:102840004fb29700efb19700080037000e0c7800e8
:102850000000eb00c0b79f00e0b79f000080eb00d6
:10286000d0b79f000002eb00840178001200200026
:10287000810621000a0078004afe07006fff37003a
:10288000180ce800090078004f0778004f06be00da
:102890004f05be004f04be006f01b10000000600ee
:1028a0008200fa00889fbe008a1f78000005780029
:1028b00082047800c13f9f000004eb001000370045
:1028c0000902780088017800a2f72f000f0141006b
:1028d00081f72f008f8040000a00780084fe0700f7
:1028e00008004000880f500004003d00b0042000a4
:1028f000108688000084eb00040037000004780094
:102900004f3897001004e000edff3a00080078000f
:102910004f0578004f04be000080fa00000006005a
:10292000889fbe000004be000000eb000800e0002d
:1029300018003200180090000058a3000d0032006b
:10294000d800900068009000808f50000900360089
:10295000b80990000001eb008200780008007800c0
:1029600003000100d80090000080eb000100e000af
:10297000080032000000eb00200c98006004980072
:10298000500498000900e0000200320018007800ae
:10299000d51407004f04be0000000600889fbe004b
:1029a0000004be000000eb000800e000250032003b
:1029b000180090000058a30011003200d8009000c9
:1029c00068009000808f500009003600b809900020
:1029d0000001eb008200780008007800030001008d
:1029e000d80090000080eb000100e00015003200ec
:1029f0000000eb00200c9800600498005004980040
:102a0000780a900008109000800f520006003100f4
:102a10000002520011002000cfa2de00612bb9009d
:102a200018007800650007000000eb000014980013
:102a3000700c98000900e0000200320018007800d5
:102a4000a91407004f04be000000060080007800b3
:102a50001000200002022000828f5000040032008b
:102a6000e9805000e48f5000010036000000eb00c8
:102a700000000600889fbe008a1f780000057800cd
:102a80000a047800984478000805e8000900fb0073
:102a9000eeff07000000e000f9ff3a00b0c2b3000b
:102aa00080cf540005003200d0c2b3008000eb009c
:102ab00080cf540005003a00020037008000eb0090
:102ac00001003700110020000804e8000000eb00be
:102ad000030037006a02b900020052000003b00090
:102ae0003801fb0003fd2f0082814100e98f510076
:102af000f8ff36000100e00001003a000000ea00a3
:102b00004f0578004f04be0000000600889fbe00fd
:102b10008a1f780080047800010578000900780099
:102b2000e6f70700000478008a01780008017800c1
:102b300011002000090078000a00070080007800da
:102b40000080eb00888f500001003a000000eb008d
:102b50004f0578004f04be0000000600100078000a
:102b600011f73700889fbe008a9fbe00810478005d
:102b70000204780009c5b9000900e00001003a002c
:102b80000004eb000a017800800078000300780060
:102b9000bcfc0700800078008a8f500003003200e0
:102ba000110009008980d80000047800080078002e
:102bb0004f05be004f04be0000000600a0fd2f0020
:102bc000f1ff2f003b0007004f89de0082017800f3
:102bd000000006000200fa0081017800e0ff9f007b
:102be000930090000188a30005003200d3009000fc
:102bf000805878000080fb00d10198000a0037005f
:102c0000120020008f80e900030078009dfc07007f
:102c1000800078000080eb000100e000020032003c
:102c2000eff897000180fb000080fa00000006002a
:102c3000e8ff370001017800800178000082680019
:102c40000408a3000500320013003700324078006a
:102c5000805978000004e00014003200030278007c
:102c60000208a300f9ff3a000300780001003700d2
:102c70000318780082007800b2017800f5ef2f0089
:102c8000838242000382ea00048262000508280071
:102c900005026200f6ff3200000278003141780040
:102ca000025878000204e000fbff3a0004007800bc
:102cb0000000060002002f00f3ff2f00820f5000db
:102cc000838f5800040036000000ea001086880058
:102cd0000080eb008080eb0000000600f1fb2f007d
:102ce00080804000f98f500001003e000050a0009d
:102cf00000000600f9ff3700f1f92f008080400046
:102d0000f98f500001003e00f005b20000000600ff
:102d1000f9ff37000000060053f70700fdff07002a
:102d2000fcff3700f28747008e1f78000202780010
:102d3000030178000000e000020032000007780084
:102d400001003700728757008002eb000100e000ad
:102d5000010032008102e90070805700060009007e
:102d60000018eb000080eb0080bf9f0023102000c4
:102d700093bf9f00aebf9f00b1bf9f00c5bf9f0024
:102d80000100e00003003d00b1042000118688002e
:102d900006003700004feb00eebf9f00debf9f0034
:102da000840078007080570011fc07004f077800fe
:102db0002f01b100000006008f1fd1009103070012
:102dc0008f87e9000000e00000000600809feb0014
:102dd0008c0307008f87e9000000e0000000060078
:102de00081037800490007000001be006000b800c0
:102df0000478a30013003a006220e10015003e00b1
:102e00000d0039008301d1000281d3008180d300fd
:102e10008301d1000281d3008180d3008301d100de
:102e20000281d3008180d3000538b000c42add00c0
:102e3000f300b2008381720007f0a70003f0a00046
:102e40000000060083ff2700020020006110b90087
:102e5000f9ff370003ff2700f7ff37001400fa00df
:102e6000889fbe008a9fbe008c9fbe000004be00eb
:102e70000205be00680047000a90be000890be0030
:102e80009b0307000070a7000bf0a1003043200057
:102e90009e02900080825200b0fe2f000028e100c8
:102ea00011003d00b0fc2f000028e10015003400a7
:102eb0001e0990008e0890007e0090000501b00071
:102ec0000201d1008180d3000080d3008502e80098
:102ed000fbff3a000b00e000c0033b006000100065
:102ee000e0801800bd033700f0ff2f00f1ff27003e
:102ef0000b00e000b9033b000100280000002000a7
:102f0000b60337006000b800b4033700c70ade001c
:102f1000f107b200f50fb20008003200e1cf420025
:102f2000020032000170a00024000500810f700033
:102f3000010032000408050044000500810f700004
:102f400002003a00140005008502e900000040007c
:102f500081c04800fcff3b000170a0002400050078
:102f6000020ab900001bb9000200b800810042004b
:102f700081004300000006008c9fbe008a9fbe00b7
:102f8000889fbe00ca0107000bf0a20004003700b2
:102f90008c9fbe008a9fbe00889fbe00c4010700b0
:102fa0000c48e1000b003a000c40e1000200320046
:102fb0008b010700400037008b066d003e00320099
:102fc0000af0a100f3012000f2ff2f006110b90008
:102fd000390037000c40e100370032000940e100c1
:102fe000010036007e0107008a856d00cf5dde009e
:102ff0000b0575000006eb008804fd0089045400f1
:10300000010032007d0107000a04e00011003a00cf
:103010000800e000280032000400400085804800dd
:1030200006014900878149000358a30018003200b7
:103030008301d1000281d3008180d3000080d300be
:103040000c86d30001003900610676000804e80010
:103050001800370004005000858058000601590010
:1030600087815900060031000af0a2000c06ea0030
:1030700060001800e080180060011900e08119006c
:1030800003003a000004eb000005eb000a003700e3
:103090000348a30007003a000c0646000000480061
:1030a0008180480002014900838149000804e90049
:1030b000f7ff3700af013700c90137008c9fbe0012
:1030c0008a9fbe00889fbe00790107000b056d0036
:1030d0000940e1000a003a000800e0000200320066
:1030e0000c40e10006003a000af0a1000c04780050
:1030f000f3012000f2ff2f006110b9009d0037009e
:103100000c40e1009b0032000800e0009900320012
:103110000c48e10002003a000004eb000300370015
:103120000900e00004003a000c0478006000b800d8
:103130006011b8008f0037000348a30006003a0072
:10314000000040008180480002014900838149005d
:103150000804e900f8ff37000748a30006003a001a
:103160000402420085824a0006034b0087834b001d
:103170008904e900f8ff3700fd3f20008d845400ea
:10318000090454008a1f7800881f78000004780022
:103190008104780002057800830578006000b8009b
:1031a0006011b8000d042000050037000804440039
:1031b00089844c000a054d008b854d0008003100c4
:1031c0000404540085845c0006055d0087855d006d
:1031d0008381d2008d06d300f4ff3b000700370047
:1031e0000404440085844c0006054d0087854d008d
:1031f0008381d2008d06d300ecff3b00080444001d
:1032000089844c000a054d008b854d000800310073
:103210000404540085845c0006055d0087855d001c
:103220000281d2008d06d300f4ff3b000700370077
:103230000404440085844c0006054d0087854d003c
:103240000281d2008d06d300ecff3b00080444004d
:1032500089844c000a054d008b854d000800310023
:103260000404540085845c0006055d0087855d00cc
:103270008180d2008d06d300f4ff3b0007003700a9
:103280000404440085844c0006054d0087854d00ec
:103290008180d2008d06d300ecff3b00080444007f
:1032a00089844c000a054d008b854d0008003100d3
:1032b0000404540085845c0006055d0087855d007c
:1032c0000080d2008d06d300f4ff3b0007003700da
:1032d0000404440085844c0006054d0087854d009c
:1032e0000080d2008d06d300ecff3b000b00e00015
:1032f00004003d000404440085844c0006054d0094
:1033000087854d000006eb008301d1000281d300c8
:103310008180d3000080d3000c86d3008301d100cc
:103320000281d3008180d3000080d3000c86d300bb
:10333000890474008b0575008b84740001003200d1
:10334000610676004f0478004f0578000348a3001b
:1033500007003a000c064600000048008180480043
:1033600002014900838149000804e900f7ff3700a2
:10337000000137001a0137008c9fbe008a9fbe00f3
:10338000889fbe00ca0007000b056d008a05780003
:103390000c40e10008003a000900e00082003a0019
:1033a0000af0a1000c047800f3012000f2ff2f00c6
:1033b0006110b9007c0037000c48e10004003a00bd
:1033c000870007000900e00077003a00f4ff3700ab
:1033d0000800e000740032000900e00002003a003a
:1033e0007f00070070003700ed3f20008d845400ff
:1033f000090444008a1f7800881f7800871f78001e
:10340000861f7800851f7800841f7800cb19dd00a7
:10341000c515de008b8571004b11dd00450dde000a
:103420000a057100cb08dd00c504de008984700048
:103430004b04dd000440b8000546b8008c80400015
:1034400060814e00044eb8008c8040000d014900a0
:103450008001eb000318ad000456b8000c014100d8
:103460008d8149000002eb000420ad000646b80043
:103470000c0141008d81490060024a00054eb800f0
:103480000c0141008d81490060024a000556b800d8
:103490008c8141000d024a008002eb000528ad003e
:1034a0000746b8008c8141000d024a00e0824a00c4
:1034b000064eb8008c8141000d024a00e0824a00ad
:1034c0004f0678000c5eb8008c8141000d024a0066
:1034d000e0824a000656b8000c0242008d824a0083
:1034e0000003eb000630ad00074eb8000c024200ae
:1034f0008d824a0060034b004f0678000c5eb800d6
:103500000c0242008d824a0060034b000756b8004f
:103510008c8242000d034b008003eb000738ad00a6
:103520004f0678000c5eb8008c8242000d034b0001
:10353000e0834b004f0678000c5eb8000c0343009c
:103540008d834b004f0478004f0578000748a30097
:103550000a003a0000004000818048000201490052
:103560008381490004024a0085824a0006034b0019
:1035700087834b000804e900f4ff37000306780056
:103580008080700082807000010032006106760049
:103590008701780006017800850078000400780033
:1035a00088047800780037008d0037008c064600cc
:1035b00002003a000000a60000000600600048007b
:1035c000e080480060014900e08149000350a60006
:1035d000000006008301d1000804e8000000060096
:1035e0000002fd008102fd000203fd008303fd00d7
:1035f0008804fd008a05fd00000006007048e10017
:103600001a0039007d0320000d48e1000a0039004e
:1036100081057000830671008c8575008d857500ad
:103620000006eb000cd8e700610676006000b800e9
:103630006011b800000006007048e1000b0039007e
:103640008c05780000067800010078008200780080
:10365000030178008001eb0003d8e70061067600e3
:10366000f0845400f4ff3a00000006006160e100bd
:103670000c48ad00f08514008b06dd000966de0005
:103680000d0676008b0edd000900de000d007000d7
:103690008b16dd008908de008d8070008b1edd003a
:1036a0000911de000d0171008919de00000006001d
:1036b0000d002800fc7f20000d856100441cde0009
:1036c000ef8161000c046400010032000340a0009f
:1036d0008d856300c43cde00ef8363008c8464004e
:1036e000010032000740a0000c40e10006003a0053
:1036f000ef8661008286760081867600808676007d
:1037000001003200180037000c48e10007003a00c1
:10371000ef8663008686760085867600848676004e
:1037200002003200aeff07000f0037000348a3007d
:1037300005003a0081067000828676008386760056
:10374000010032000804e8000748a30005003a0021
:103750008506720086867600878676000100320034
:103760008904e80000000600cf047800cf05780047
:103770001b00370000027800810278000203780005
:1037800083037800880478000cf0a70087ff070007
:10379000fd7f20000d40e100040035000d0478009d
:1037a0006000b8006011b8000d0037000800e000ac
:1037b0000b003c00040078008500780006017800ca
:1037c00087017800e18414008cff07000cf0a7004b
:1037d00076ff07000004eb000340a7000804e800a0
:1037e0004444dd006fc56100880175004f04be00d0
:1037f0004f05be004f06be0000000600889fbe00b9
:103800008a9fbe0030044200b0844a0030054b005d
:1038100090854b006000b1000898be000a90be0081
:103820000440e10005c8e10006d0e10007d8e1004e
:1038300002003100680040001008e8004f05be009b
:103840004f04be0000000600889fbe008a9fbe0095
:103850003004be002005be000418540005985c002a
:1038600006185d0007985d00110020000440e1008b
:1038700005c8e10006d0e10007d8e10001003900e9
:103880008000eb00108810004f05be004f04be0002
:10389000000006001200fa00889fbe008a9fbe004a
:1038a0008c9fbe00e0b79f00f1b79f0082bf9f00d2
:1038b00093bf9f000605be000404be000000eb009d
:1038c000d0b79f00c0b79f00b0b79f00a0b79f00c0
:1038d00090b79f00000678005fb19700cfb09700c7
:1038e000820141003fb097000200e00004003d006b
:1038f000370007007e805700c0ff07000300370035
:10390000330007007e805700cfff0700dfb6970027
:103910000d00e0000c0035006fb29700ffb2970079
:103920000fbb97009fbb97001000200001002000f4
:103930006011b800000272008182720002037300fd
:10394000838373001b0007000c06e80001042000bd
:10395000810f5600e0ff3a000d00e00004003d003a
:103960000802be000a03be007e805700a3ff0700c6
:103970005fa897000000e00005003a001fb2970022
:10398000afb297003fb39700cfb39700090007008d
:103990006fb09700ffb097000fb997009fb99700dd
:1039a0004f06be004f05be004f04be000080fa0067
:1039b000000006000100070000000600a4b79f00f9
:1039c000b5b79f00c6b79f00d7b79f00000006009d
:1039d0004f09de0082817100b3b79f004f01de0006
:1039e0008180400082807000a1b79f008fb0970057
:1039f0004f09de00000040000200700090b79f00f9
:103a00007fa897004f01de00818040008280700017
:103a100081b79f000d0007004f3ade000000400014
:103a200004007000f0af9f0008000700040242008d
:103a300085824a0006034b0087834b00dfff0700a7
:103a40000802be000a03be00000006002fb2970065
:103a5000bfb297004fb39700dfb397000000060096
:103a6000881f780018002000881f780089ff070051
:103a70008f87e9004f04780000000600801feb00ec
:103a800084ff07008f87e90000000600889fbe00c2
:103a90008a9fbe00e00f5000e08f5800e00f5900f1
:103aa000e08f59000c003d006044b8006055b8003c
:103ab0000000540081805c0002015d0083815d0094
:103ac000180020001500070008003d00180007003e
:103ad0000004eb00050037000004eb000f000700b6
:103ae00002003d001200070018002000dcff070064
:103af0000800e000060032006022b8006033b80021
:103b00000000520081805a0002015b0083815b004b
:103b10004f05be004f04be0000000600e00f52003b
:103b2000e08f5a00e00f5b00e08f5b0000000600b2
:103b30006044b8006055b8000402540085825c00ff
:103b400006035d0087835d0000000600889fbe00bd
:103b50008a9fbe008c1f7800e00f5000e08f580055
:103b6000e00f5900e08f59000d003d006044b8009f
:103b70006055b8000000540081805c0002015d00c7
:103b800083815d001c0020000820e10009a8e100fd
:103b90000ab0e1000bb8e1000d003d00080037005d
:103ba0000006eb00e00f5200e08f5a00e00f5b00d0
:103bb000e08f5b0006003d006044b8006055b8002f
:103bc0000402540085825c0006035d0087835d006b
:103bd000aaff07000c00e000060032006022b800d7
:103be0006033b8000000520081805a0002015b007f
:103bf00083815b004f0678004f05be004f04be0076
:103c000000000600889fbe008a9fbe008c9fbe00f9
:103c10000404be000605be00809fbe00829fbe0059
:103c200021000700040678000800be000a01be005b
:103c30001d000700840678004f03be004f02be003f
:103c40008d4f76007fb0970013003300f0ff2f00f8
:103c50008b8f6b0006003b000d0666000c00a70072
:103c60000a00370007f0a600100020000a00370005
:103c7000880f5200898f5a008a0f5b008b8f5b0080
:103c8000030039001000200001003e000000200069
:103c900007f0a7000000ea004f06be004f05be0077
:103ca0004f04be000000060005ff270005826100ea
:103cb000070032000428e100010032002400050062
:103cc0000600070001003a00440005000408050052
:103cd00002000700f9ff3a00140005006f8261003e
:103ce00081027000850271008502720000000600ea
:103cf000800078005002be005003be004439de0050
:103d0000f700b200f37f20000301610009003200d8
:103d10000218e10016003a00850172008301730069
:103d2000838173000008200015003a004000200045
:103d300013003700850172008301730083817300d3
:103d400005003a0004a8be0006a8be00100020002e
:103d50000b0037000201e9000402420085824a009c
:103d600006034b0087834b000748a300f9ff32008e
:103d70000740a00004a8be0006a8be002000200046
:103d80008000980092009800000006006804470038
:103d90000294be000094be00fc0447008694be005e
:103da0008494be0009007800d1ff07000800780065
:103db000cfff070099007800814f70000b003b0097
:103dc0000800be000a0007004f00b10003003700e2
:103dd000f3ff2700f2ff2f006110b9004f06be006d
:103de0004f05be004f04be000080fa000000060030
:103df000e48240001078a300070032006402400013
:103e00001178a3003400be001401be00040032008b
:103e10000330a700000006003500be001501be00fb
:103e20000330a000000006001800fa00889fbe00c2
:103e30008a9fbe008c1f78000004be000205be00f1
:103e40000802be000a03be00443ade00f07f2000f4
:103e50000006620020432000800f560067003c00ef
:103e60006022b8006033b8000800be00d2fb070033
:103e70000000e000610032000802be000a03be003c
:103e8000b4b79f00c5b79f00d6b79f00e7b79f00a4
:103e9000e00f5200e08f5a00e00f5b00e08f5b0004
:103ea0000b003d006022b80006002000073324000c
:103eb0000800be000a01be002ffc07006022b80007
:103ec000060020000733240031fc07000a003700f9
:103ed0006022b80006002000073324000800be005e
:103ee0000a01be002afc07006022b800060020007c
:103ef0000733240020fc07000802be000a03be00ae
:103f00001dfc07000002be000203be00f4b79f00c4
:103f100085bf9f0096bf9f00a7bf9f00e03f200086
:103f2000800f560017003c007fb097008fb89700b5
:103f30001fb99700afb99700f0af9f0081b79f00fe
:103f400092b79f00a3b79f006044b8006055b800c7
:103f50003fb29700cfb297005fb39700efb39700df
:103f6000e00f5200e08f5a00e00f5b00e08f5b0033
:103f700022003d006044b8000a0020000bff2b0027
:103f80001e0037006022b8006033b8007fb0970091
:103f90008fb897001fb99700afb997008bfb070048
:103fa0000000e0000c0034007fb297008fba970049
:103fb0001fbb9700afbb97000800be000a01be0000
:103fc000f3fb07006022b8000600200007ff230073
:103fd000e9fb0700070037007fb297008fba970010
:103fe0001fbb9700afbb97000800be000a01be00d0
:103ff000e7fb07000004be000205be000800be008b
:104000000a01be004f0678004f05be004f04be00f7
:084010000080fa000000060028
:020000040000fa
:10401800686f00006d6500002f7400006573000074
:104028007400000000000000000000000000000014
:104038000000000000000000000000000000000078
:104048000000000000000000000000000000000068
:104058000000000000000000000000000000000058
:104068000000000000000000000000000000000048
:104078000000000000000000000000000000000038
:104088000000000000000000000000000000000028
:104098000000000000000000000000000000000018
:1040a8000000000000000000000000000000000008
:1040b80000000000000000000000000000000000f8
:1040c80000000000000000000000000000000000e8
:1040d80000000000000000007b2200007465000062
:1040e8006d700000223a000022000000222c00001f
:1040f800226b000065790000315f000073740000d6
:1041080061740000652200003a22000000220000cd
:104118002c2200006b650000793200005f730000fc
:104128007461000074650000223a0000220000005b
:10413800227d0000002500002e32000066000000ed
:104148006f660000660000006f6e0000004d000002
:1041580069630000726f0000636800006970000006
:104168005f61000063310000363400003136000022
:1041780034000000436f00006e6e000065630000ad
:104188007465000064200000746f00002041000086
:1041980050000000576900004669000020450000f3
:1041a800727200006f72000000550000504300005a
:1041b800343400003839000036390000385f000018
:1041c800322e000034470000487a000000500000fa
:1041d80061770000656c0000313300003031000069
:1041e80033300000006800006f6d0000652f00008c
:1041f8006461000074610000000000005374000056
:104208006172000074000000535700003150000034
:104218007265000073730000200a00000d000000a2
:1042280053570000314800006f6c00006420000004
:104238000a0d00000053000057310000446f0000d1
:10424800756200006c65000000640000656600008f
:10425800617500006c74000000000000e088000038
:10426800729100003e890000588900008a89000088
:10427800b8890000e8890000f48900001a8a000063
:10428800fe890000256c0000642000002d3e00001f
:10429800200000004e5500004c4c000000000000bb
:1042a800cfff0000ffff000000c9000000e8000089
:1042b8002400000000000000525c0000ac44000034
:1042c800ba3500005a7f00005a7f00005a7f00006c
:1042d8005a7f00005a7f0000200100000300000000
:1042e80000000000200100000000000000000000a5
:020000040000fa
:1042f8000000fa003208a8006000b8000080fa0048
:10430800000006000000fa003228a800a07a800009
:104318004800de00b27a8000f10f200081006100c1
:10432800c808dd0001007000c800dd004800de009c
:10433800008070000000e9008000eb00823e200051
:104348000289b900020178006002b900840178008e
:1043580003014100833e20000300b8000101410031
:10436800820078000080fa00000006000000fa00d1
:104378003248a80000532700010020000080fa00fe
:10438800000006000000fa003268a8006000b800cb
:104398000080fa00000006000000fa003288a80039
:1043a8006000b8000080fa00000006000000fa0073
:1043b8003a28ef000080fa00000006000000fa002a
:1043c800d04180000080fa00000006000400fa00d6
:1043d800100798000000eb00000f7800d2012000c1
:1043e8008000eb0080f4200029f10700417a80006a
:1043f800f0f02f00008060000040a000407a8800a4
:10440800407a80000030a100407a8800417a80001c
:1044180090ff2f0000806000407a8800407a80007a
:104428000000a100407a8800d0f420008040eb0012
:1044380001487800e0f4200041c0b300014878004a
:10444800f0f42000d1c4b3000148780000f5200042
:1044580011c5b3000148780010f5200041c5b3002c
:104468000148780020f5200041c5b30001487800d4
:1044780030f5200041c0b300014878001e009000cc
:10448800f05090008180fb00005890000080fb00f5
:104498004800dd00008070000000e00009003a00dc
:1044a8001e009000b05090008180fb0040509000aa
:1044b8000080fb004800dd00008070000000e00084
:1044c8000400320040f5200021ccb30001487800f8
:1044d8000300370040f5200021c0b30001487800f0
:1044e8001e009000d04890008180fb00604890003a
:1044f8000080fb004800dd0000807000c800dd007f
:104508004800de0000807000f10f2000810060008c
:10451800c808dd00a37a8000f20f20000281610044
:1045280082807000a17a8800c800de00f00f2000a9
:1045380000806000b27a800001f02f0081006100e5
:1045480001007000b07a88001e0090009050900022
:104558008180fb00205090000080fb004800dd00b7
:1045680000807000f10f200081006000c808dd00a5
:10457800c37a8000f20f20000281610082807000ff
:10458800c17a8800c800de00f00f200000806000bb
:10459800d27a800001f02f008100610001007000d4
:1045a800d07a8800c07a80004800de00d27a800085
:1045b800f10f200081006100c808dd0001007000d3
:1045c8003cf10700f10f200081006000c808dd0001
:1045d800b37a8000f20f20000281610082807000af
:1045e800b17a8800c800de00f00f2000008060006b
:1045f800c27a800001f02f00810061000100700084
:10460800c07a880040f52000104078000044b200cd
:104618000004e0002e0032001e0090009058900028
:104628008180fb00205890000080fb004800dd00de
:1046380000807000f10f200081006000c808dd00d4
:10464800037b8000f20f20000281610082807000ed
:10465800017b8800c800de00f00f200000806000a9
:10466800127b800001f02f008100610001007000c2
:10467800107b88001e009000f05090008180fb00a5
:10468800005890000080fb004800dd0000807000aa
:10469800f10f200081006000c808dd00f37a800077
:1046a800f20f20000281610082807000f17a880098
:1046b800c800de00f00f200000806000027b800050
:1046c80001f02f008100610001007000007b88006c
:1046d80040f520009040780000c8b30000c060009a
:1046e8000004e0002e0032001e009000d050900020
:1046f8008180fb00605090000080fb004800dd00d6
:1047080000807000f10f200081006000c808dd0003
:10471800e37a8000f20f200002816100828070003d
:10472800e17a8800c800de00f00f200000806000f9
:10473800f27a800001f02f00810061000100700012
:10474800f07a88001e009000b05090008180fb0035
:10475800405090000080fb004800dd0000807000a1
:10476800f10f200081006000c808dd00d37a8000c6
:10477800f20f20000281610082807000d17a8800e7
:10478800c800de00f00f200000806000e27a8000a0
:1047980001f02f008100610001007000e07a8800bc
:1047a80040f520009040780000c8b30000c06000c9
:1047b8000004e00009003a00b07a80004800de00fa
:1047c800c27a8000f10f200081006100c808dd0076
:1047d80001007000000f780019003700b07a8000df
:1047e8004800de00c27a8000f10f200081006100dd
:1047f800c808dd000100700080007800f07a8000b1
:104808004800de00037b8000f20f20000281610077
:104818004811dd000200700080804000d07a8000de
:104828004800de00e37a8000f20f20000281610078
:104838004811dd000200700000804000640f400055
:104848009e0078006c804000f10f2000810060001d
:10485800c808dd00137b8000f20f20000281610090
:1048680082807000117b8800c800de00f00f2000f5
:1048780000806000227b800001f02f008100610031
:1048880001007000207b880040f5200090407800ef
:1048980000c8b30000c060000004e00005003a0052
:1048a80040f52000104078000044b2000004e00009
:1048b80034003200f07a80004800de00027b80007d
:1048c800f10f200081006100c808dd0001007000c0
:1048d800c800dd004800de0000807000f10f2000f5
:1048e80081006000c808dd00f37a8000f20f200024
:1048f8000281610082807000f17a8800c800de00c1
:10490800f00f200000806000027b800001f02f0083
:104918008100610001007000007b8800d07a80006f
:104928004800de00e27a8000f10f2000810061007b
:10493800c808dd0001007000c800dd004800de0086
:1049480000807000f10f200081006000c808dd00c1
:10495800d37a8000f20f200002816100828070000b
:10496800d17a8800c800de00f00f200000806000c7
:10497800e27a800001f02f008100610001007000e0
:10498800e07a8800b07a80004800de00c27a8000b1
:10499800f10f200081006100c808dd0001007000ef
:1049a800c800dd004800de0000807000f10f200024
:1049b80081006000c808dd00b37a8000f20f200093
:1049c8000281610082807000b17a8800c800de0030
:1049d800f00f200000806000c27a800001f02f00f4
:1049e8008100610001007000c07a88002e68ef0025
:1049f8002e08a80010002000d041880010c0b30085
:104a08000080fa00000006000400fa001007980071
:104a18000040eb00004f7800020120008000eb000e
:104a280060f620009aef0700d0418000e30f5000a5
:104a3800ad003a00317b8000f0f02f0080806000ec
:104a48000003200001007000307b88001e009000e9
:104a58001080fb004300de00614060000080fb0026
:104a6800610060004300dd00317b80000130a1005f
:104a780001007000307b88001e0090001080fb0051
:104a88000000d100634060000080fb00630060000c
:104a980000004000327b800091ff2f008100610000
:104aa80001007000307b880060f62000104078001c
:104ab800664060000004e00008003a0060f620004c
:104ac80010407800684060000004e00003003200f5
:104ad800307b80000030a100307b88001e009000f1
:104ae8009040780061c060000080fb0061006000b9
:104af800317b80000100a10001007000307b88003c
:104b08001e009000f04090008180fb00004890005b
:104b18000080fb004800dd0000807000f10f2000dd
:104b280081006000c808dd00637b8000f20f200070
:104b38000281610082807000617b8800c800de000d
:104b4800f00f200000806000727b800001f02f00d1
:104b58008100610001007000707b88001e009000d9
:104b6800f04090008180fb00004890000080fb002e
:104b78004800dd0000807000ceef0700f10f200034
:104b880081006000c808dd00537b8000f20f200020
:104b98000281610082807000517b8800c800de00bd
:104ba800f00f200000806000627b800001f02f0081
:104bb8008100610001007000607b88001e00900089
:104bc8001080fb000000d100634060000080fb0003
:104bd8000000e0000b0034001e0090009048900098
:104be800f0f62000014878001e009000a0489000d0
:104bf80000f7200001487800a07b80000080e800d2
:104c0800a07b88001e009000c04890008180fb00b7
:104c1800504890000080fb004800dd0000807000d4
:104c2800907b88001e009000b048900010f720008c
:104c380001487800a17b8000507b80004800de009e
:104c4800637b8000f20f2000028161004811dd00c3
:104c5800020070000001780010f720001040780072
:104c68000080fb0000004100008040000080e80058
:104c7800a07b8800507b80004800de00627b8000bb
:104c8800f10f200081006100c808dd0001007000fc
:104c9800c800dd004800de0000807000f10f200031
:104ca80081006000c808dd00537b8000f20f2000ff
:104cb8000281610082807000517b8800c800de009c
:104cc800f00f200000806000627b800001f02f0060
:104cd8008100610001007000607b88002e48a800f8
:104ce80010c0b300004f78001e4078000080fa0022
:104cf800000006000400fa00100798000040eb00ce
:104d0800104798000040eb00004f7800d041800029
:104d1800e30f500094003a00804180006400600076
:104d28000000e00090003a00e20020008000eb0064
:104d380060f72000d6ee0700b17b8000f0f02f006e
:104d4800008060000070a000b07b8800b07b80000d
:104d58000030a100b07b8800b17b800090ff2f005d
:104d6800008060000010a000b07b8800b07b80004d
:104d78000000a100b07b88001e009000d040900089
:104d8800b0f72000014878001e009000e040900035
:104d9800c0f72000014878000040eb001047980059
:104da800680037001e4090008081fb001e40900084
:104db8000080fb001e0190006500b900000078002b
:104dc8006600400080004100914090008180fb0017
:104dd80000004100204090000080fb004800dd00fa
:104de800008070004801dd00c800de00810071000d
:104df8006519b90002017800c0f7200000004100e1
:104e0800f20f20000281600090419000e0c1610033
:104e180002c1710012409800c808de0020419000cd
:104e28006041610081407100214098001e4090005f
:104e38008081fb001e4090000080fb001e01900056
:104e48006500b9000000780068004000800041005b
:104e5800914090008180fb000000410020409000bc
:104e68000080fb004800dd00008070000001780031
:104e78006518b90080007800e0f720000080400045
:104e8800f10f20008100610090419000e0c16100b5
:104e980081c0710011409800c810de0020419000c8
:104ea8006041610081407100214098001e409000df
:104eb8008081fb001e4090000080fb001e019000d6
:104ec8006500b900000078006a0040000000410059
:104ed800104190006518b9008000780000f82000a3
:104ee8000080400012409800127c80001e40900014
:104ef8000080fb006500b90000007800e600400073
:104f080060f7200000804000904090008180fb0006
:104f1800204090000080fb004800dd000080700009
:104f2800c800dd004800de0000807000000041007d
:104f380063004000107c88001e4090000040e8009c
:104f4800104798001e4090000004e00095ff3200d2
:104f5800107c80000080e800107c88002e68a80083
:104f680010c0b300004f78001e4078000080fa009f
:104f7800000006000400fa00100798000040eb004b
:104f8800104798000040eb00004f7800d0418000a7
:104f9800e30f5000b8003a008041800068006000cc
:104fa8000000e000b4003a00d20020008000eb00ce
:104fb80040f8200036ee0700217c8000f0f02f003a
:104fc80080806000000a200001007000207c8800ba
:104fd800207c80000030a100207c8800217c80009b
:104fe80090ff2f00008060000010a000207c880047
:104ff800207c80000000a100207c88001e0090001a
:10500800d040900090f82000014878001e009000e1
:10501800e0409000a0f82000014878000040eb0034
:1050280010479800760037001e4090000081fb0072
:105038001e4090000080fb009e0090004200dd00b2
:105048006600400080814000934190008381fb000e
:1050580000804000204090000080fb004800dd00f8
:1050680000807100c801dd00c800de008180710089
:105078004211dd00a0f8200000004100f20f2000de
:10508800028160004811dd0010027800f30f200053
:105098008301620003017100020878004809de00fc
:1050a800f10f2000810061009001900002f02f00b4
:1050b8000281610082807000110098001e409000fb
:1050c8000081fb001e4090000080fb009e009000c5
:1050d8000080e8004200dd0080814000934190009c
:1050e8008381fb0000804000204090000080fb008e
:1050f8004800dd0000807100800078000280e80030
:105108004201dd0040f8200000004100f20f2000bd
:10511800028160004811dd0010027800f30f2000c2
:105128008301620003017100020878004809de006b
:10513800f10f2000810061009001900002f02f0023
:10514800028161008280700011009800707c8000ec
:105158004800de00827c8000f10f200081006100a1
:10516800c808dd0001007000800078001e40900033
:105178000080fb004200dd006601400040f820008e
:1051880000004100100178004811de0090019000f5
:10519800f00f2000008061004800dd000000710071
:1051a8004801dd004800de0000007100008040007a
:1051b8000080e800f10f200081006000c808dd00d1
:1051c800737c8000f20f20000281610082807000f1
:1051d800717c8800c800de00f00f200000806000ad
:1051e800827c800001f02f008100610001007000c6
:1051f800807c88001e4090000040e800104798001e
:105208001e4090000004e00087ff3200707c8000a0
:105218004800de00827c8000f10f200081006100e0
:10522800c808dd00010070000080e800f10f2000d0
:1052380081006000c808dd00737c8000f20f200048
:105248000281610082807000717c8800c800de00e5
:10525800f00f200000806000827c800001f02f00a9
:105268008100610001007000807c88002e88a80001
:1052780010c0b300004f78001e4078000080fa008c
:10528800000006000400fa00100798000040eb0038
:10529800004f78001e009000af2d07001e00900000
:1052a80068004000ac2d07001e009000120020008e
:1052b80081f42000b32d0700107b80004800de0039
:1052c800227b8000f10f200081006100c808dd000a
:1052d8000100700091f42000c80007008080fb00e6
:1052e8001e0090000101780091f42000a52d070010
:1052f8001e009000a2002000d1f42000a12d07007c
:1053080071f520001e009000220020009d2d07004e
:10531800c07a80004800de00d27a8000f10f2000b9
:1053280081006100c808dd0001007000e1ed0700a0
:1053380000017800c07a80004800de00d37a80003f
:10534800f10f200081806100c808dd0001007000b5
:10535800800078001e0090008a2d0700f07a8000f7
:105368004800de00027b8000f10f20008100610010
:10537800c808dd00010070000000e00009003a00e4
:10538800d07a80004800de00e27a8000f10f200029
:1053980081006100c808dd00010070000000e00025
:1053a80032003200b1f520001e00900022002000db
:1053b800742d0700d07a80004800de00e27a800071
:1053c800f10f200081006100c808dd0001007000b5
:1053d800c800dd004800de0000807000e17a80002f
:1053e800c808de00f37a8000f20f20000281610015
:1053f8004811dd00828070009e0190000001780055
:10540800030078005f2d0700f1f520001e009000d2
:10541800220020005b2d0700f07a80004800de00a3
:10542800027b8000f10f200081006100c808dd00c8
:1054380001007000c800dd004800de000080700038
:10544800017b8000c808de00137b8000f20f20007b
:10545800028161004811dd00828070009e01900089
:105468000001780003007800462d07001e00900018
:1054780060320700004f78001e4078000004e0000a
:10548800010032002e08a9001e4078000080fa00b2
:10549800000006000400fa00100798000040eb0026
:1054a800004f78001e0090002b2d07001e00900072
:1054b80068004000282d07001e0090001200200000
:1054c80061f620002f2d0700a07b800071f62000d8
:1054d8004a0007008080fb001e0090000101780050
:1054e80071f62000272d0700b1f620001e0090005d
:1054f80022002000232d0700507b80004800de009a
:10550800627b8000f10f200081006100c808dd0087
:1055180001007000c800dd004800de000080700057
:10552800617b8000c808de00737b8000f20f2000da
:10553800028161004811dd00828070009e019000a8
:1055480000017800030078000e2d070060f62000a7
:105558001040780066406000e24f500008003a00b2
:105568001e0090001200200001f72000052d070002
:105578001e00900012002000f1f62000012d070007
:1055880010f72000104078000081fb00917b80001c
:105598001e009000fb2c0700704180006400600032
:1055a8000000e00005003a0060f620001040780096
:1055b800684060000004e0000d0032001e0090000a
:1055c8000c320700004f78001e4078000004e0000d
:1055d800070032002e48a90060f62000104078002d
:1055e80066406000e24f500001003a0030a8a80071
:1055f8001e4078000080fa00000006000600fa004d
:1056080010079800210798000040eb001047980009
:105618001e00900000407800804078000174a100ce
:10562800014f78001e0090004700de001007980028
:105638001e0090000000e000010032001e74a0006f
