:020000040000fa
:080000000001040000000000f3
:020000040000fa
:04000800840200006e
:020000040000fa
:04000c00c602000028
:020000040000fa
:0400100006030000e3
:020000040000fa
:04001400a402000042
:020000040000fa
:04001800e6020000fc
:020000040000fa
:04001c009603000047
:020000040000fa
:040020009603000043
:020000040000fa
:04002400960300003f
:020000040000fa
:04002800960300003b
:020000040000fa
:04002c009603000037
:020000040000fa
:040030009603000033
:020000040000fa
:040034006003000065
:020000040000fa
:04003800960300002b
:020000040000fa
:04003c009603000027
:020000040000fa
:040040009603000023
:020000040000fa
:04004400960300001f
:020000040000fa
:04004800960300001b
:020000040000fa
:04004c009603000017
:020000040000fa
:040050009603000013
:020000040000fa
:04005400960300000f
:020000040000fa
:04005800960300000b
:020000040000fa
:04005c009603000007
:020000040000fa
:040060009603000003
:020000040000fa
:0400640096030000ff
:020000040000fa
:0400680096030000fb
:020000040000fa
:04006c0096030000f7
:020000040000fa
:0400700096030000f3
:020000040000fa
:04007400260300005f
:020000040000fa
:0400780096030000eb
:020000040000fa
:04007c0096030000e7
:020000040000fa
:0400800096030000e3
:020000040000fa
:0400840096030000df
:020000040000fa
:0400880096030000db
:020000040000fa
:04008c0096030000d7
:020000040000fa
:0400900096030000d3
:020000040000fa
:0400940096030000cf
:020000040000fa
:0400980096030000cb
:020000040000fa
:04009c0096030000c7
:020000040000fa
:0400a00096030000c3
:020000040000fa
:0400a40096030000bf
:020000040000fa
:0400a80096030000bb
:020000040000fa
:0400ac0096030000b7
:020000040000fa
:0400b00096030000b3
:020000040000fa
:0400b40096030000af
:020000040000fa
:0400b80096030000ab
:020000040000fa
:0400bc0096030000a7
:020000040000fa
:0400c00096030000a3
:020000040000fa
:0400c400960300009f
:020000040000fa
:0400c800960300009b
:020000040000fa
:0400cc009603000097
:020000040000fa
:0400d0009603000093
:020000040000fa
:0400d400960300008f
:020000040000fa
:0400d800960300008b
:020000040000fa
:0400dc009603000087
:020000040000fa
:0400e0009603000083
:020000040000fa
:0400e400960300007f
:020000040000fa
:0400e800960300007b
:020000040000fa
:0400ec009603000077
:020000040000fa
:0400f0009603000073
:020000040000fa
:0400f400960300006f
:020000040000fa
:0400f800960300006b
:020000040000fa
:0400fc009603000067
:020000040000fa
:040100009603000062
:020000040000fa
:04010400960300005e
:020000040000fa
:04010800960300005a
:020000040000fa
:04010c009603000056
:020000040000fa
:040110009603000052
:020000040000fa
:04011400960300004e
:020000040000fa
:04011800960300004a
:020000040000fa
:04011c009603000046
:020000040000fa
:040120009603000042
:020000040000fa
:04012400960300003e
:020000040000fa
:04012800960300003a
:020000040000fa
:04012c009603000036
:020000040000fa
:040130009603000032
:020000040000fa
:04013400960300002e
:020000040000fa
:04013800960300002a
:020000040000fa
:04013c009603000026
:020000040000fa
:040140009603000022
:020000040000fa
:04014400960300001e
:020000040000fa
:04014800960300001a
:020000040000fa
:04014c009603000016
:020000040000fa
:040150009603000012
:020000040000fa
:04015400960300000e
:020000040000fa
:04015800960300000a
:020000040000fa
:04015c009603000006
:020000040000fa
:040160009603000002
:020000040000fa
:0401640096030000fe
:020000040000fa
:0401680096030000fa
:020000040000fa
:04016c0096030000f6
:020000040000fa
:0401700096030000f2
:020000040000fa
:0401740096030000ee
:020000040000fa
:0401780096030000ea
:020000040000fa
:04017c0096030000e6
:020000040000fa
:0401800096030000e2
:020000040000fa
:0401840096030000de
:020000040000fa
:0401880096030000da
:020000040000fa
:04018c0096030000d6
:020000040000fa
:0401900096030000d2
:020000040000fa
:0401940096030000ce
:020000040000fa
:0401980096030000ca
:020000040000fa
:04019c0096030000c6
:020000040000fa
:0401a00096030000c2
:020000040000fa
:0401a40096030000be
:020000040000fa
:0401a80096030000ba
:020000040000fa
:0401ac0096030000b6
:020000040000fa
:0401b00096030000b2
:020000040000fa
:0401b40096030000ae
:020000040000fa
:0401b80096030000aa
:020000040000fa
:0401bc0096030000a6
:020000040000fa
:0401c00096030000a2
:020000040000fa
:0401c400960300009e
:020000040000fa
:0401c800960300009a
:020000040000fa
:0401cc009603000096
:020000040000fa
:0401d0009603000092
:020000040000fa
:0401d400960300008e
:020000040000fa
:0401d800960300008a
:020000040000fa
:0401dc009603000086
:020000040000fa
:0401e0009603000082
:020000040000fa
:0401e400960300007e
:020000040000fa
:0401e800960300007a
:020000040000fa
:0401ec009603000076
:020000040000fa
:0401f0009603000072
:020000040000fa
:0401f400960300006e
:020000040000fa
:0401f800960300006a
:020000040000fa
:0401fc009603000066
:020000040000fa
:10020000af0321000e7f24000e01880000000000d3
:10021000000020000000e000020032000001200089
:100220002002880014000700560107000000e000cb
:1002300003003a00004c27000100200002003700b4
:100240000000200001002000810f7000010032003a
:1002500014000700000020000000e000020032004f
:1002600000000200000000002881020000000000e1
:100270000040da000000fe004440a900e019200020
:100280000000e00003003200002020009001880000
:100290004440a800000006008a1f78008b1f7800e9
:1002a00000000600a1028800800478000000eb0036
:1002b0001f003700e284440054a0b4009905ba003e
:1002c000e284440054a0b4009906ba00e2844400d9
:1002d00054a0b4000006eb00476fde00fd07b2003b
:1002e000ae018800636ce10003003a00eaff0700fa
:1002f0000000eb000e003700606ce10008003a00df
:10030000004deb000a05e800020039003420ec0043
:100310000af0a0008b05e900f9ff3e000400370059
:100320006168e100010032000086eb000b0007006d
:1003300019c7ba001905ba000e04e00003003a001c
:100340000a00e000dbff3a0000000600fe07b200f2
:10035000ae0288008a047800f5ff37000cd0a300b5
:10036000e20f4d001c00390089027800354dba00bb
:100370000a05e800020039003420ec000af0a00071
:100380008b05e9000f003200254dba000a05e80090
:10039000020039003420ec000af0a0008b05e900cf
:1003a000080032000c00e0000600320015cdba0053
:1003b0000a05e800020039003420ec000af0a00031
:1003c0008b05e9008984e80054a0b4000b00e0002c
:1003d000e2ff3a00000006009902ba00055d7800cd
:1003e0008b05e900f7ff3200c82ade00055d7800c2
:1003f0008b05e900f3ff32000c00e000f1ff320052
:1004000019ddba00eeff3700027904000000000099
:1004100096800400000000006079040000000000e5
:100420007a79040000000000ac79040000000000ac
:10043000da790400000000000a7a040000000000dd
:10044000167a0400000000003c7a0400000000005e
:10045000207a040000000000c464040000000000d2
:10046000fc600400000000007e7f0400000000002b
:100470008c720400000000003c72040000000000c8
:100480009a72040000000000cc720400000000001a
:1004900072710400000000003c1404000000000021
:1004a00046140400000000007a140400000000005c
:1004b00086140400000000009014040000000000f6
:1004c000487a0400000000006c37040000000000bf
:1004d0007a28040000000000cc6d04000000000039
:1004e000d27b040000000000c67d04000000000074
:1004f000640e040000000000160904000000000063
:10050000e4040400000000003600f800809fbe00f4
:10051000829fbe00849fbe00869fbe000000fa003e
:100520008020a9000000eb002a3f07000080fa00ad
:100530004f03be004f02be004f01be004f00be0081
:100540003600f900004006003600f800809fbe002b
:10055000829fbe00849fbe00869fbe000000fa00fe
:10056000213f07008040a90010002000193f07002c
:100570000080fa004f03be004f02be004f01be00d4
:100580004f00be003600f900004006003600f800bb
:10059000809fbe00829fbe00849fbe00869fbe00db
:1005a0000000fa008060a90020002000093f070039
:1005b0000080fa004f03be004f02be004f01be0094
:1005c0004f00be003600f900004006003600f8007b
:1005d000809fbe00829fbe00849fbe00869fbe009b
:1005e0000000fa008080a90030002000f93e0700da
:1005f0000080fa004f03be004f02be004f01be0054
:100600004f00be003600f900004006003600f8003a
:10061000809fbe00829fbe00849fbe00869fbe005a
:100620000000fa008600a90070002000e93e0700e3
:100630000080fa004f03be004f02be004f01be0013
:100640004f00be003600f900004006003600f800fa
:10065000809fbe00829fbe00849fbe00869fbe001a
:100660000000fa0050048000680060000000e00014
:100670000c00320081338000000021000080600007
:100680000000e00006003200304480000000e0007e
:100690000200320030448000000001007186a90091
:1006a0008a60a9000080fa004f03be004f02be001e
:1006b0004f01be004f00be003600f90000400600aa
:1006c0003600f800809fbe00829fbe00849fbe005f
:1006d000869fbe000000fa00404480000000e00059
:1006e000020032004044800000000100700321003d
:1006f000104078008040e800700321000148780035
:100700006003210011c0b300014878008860a9008f
:100710000080fa004f03be004f02be004f01be0032
:100720004f00be003600f900004006000040da002d
:100730000000fe000800fa0010079800210798004a
:1007400032079800be009000010f780007003700c4
:100750002e00900010407800ae0090008100e8006c
:10076000210798009a3c07001e0fe9001e00780040
:100770000000e000f6ff3a003e0090000080fa0022
:1007800000000600000005000000fa006881570024
:10079000cfb89700d0788000100078008202070060
:1007a0000080fa0000000600340137000000fa0063
:1007b00068815700cfb89700d0788000100078008b
:1007c000790207000080fa00000006009d00070083
:1007d000f5000700a6010700ce010700270107006a
:1007e000f00207009b02370080017800020037000a
:1007f000b15978000201e9000200e000fcff3a0074
:1008000000000600889fbe008a9fbe00800478001a
:100810000200e0005b00320001407800814c78006b
:1008200082814400f1f99f00e20f5100550036002b
:1008300091449800a1449800e1f99f00d1f99f00ec
:10084000e60f51004f003600b1449800c1f99f00f7
:10085000e80f51004b0036000905ea00630565000a
:100860000a8444000a055100c1ff2f0001056500fc
:100870000080fb008000eb0012102000131020000d
:1008800026060700008cbe000a01440060b99f00e4
:1008900071b99f00e80f55003a0036002004980017
:1008a00031049800400498005104980020b99f003a
:1008b00031b99f0040b99f0051b99f00f80f550012
:1008c000300036006004980071049800000c980015
:1008d000110c9800200c9800310c9800400c9800e6
:1008e000510c980020b19f0031b19f0040b19f0092
:1008f00051b19f0060b19f0071b19f0000b99f008e
:1009000011b99f00640164007801410002044400b1
:10091000020555006011b8000203be000002be00cf
:100920000403be006022b8000000720081807200e3
:10093000020173008381730010003700009cbe0029
:100940000294be004004980051049800620498008c
:1009500073049800000c9800110c9800220c980069
:10096000330c9800400c9800510c9800620c9800d1
:10097000730c98000a02b1000802b000ff0f550086
:10098000eeff3e00090078004f05be004f04be0098
:1009900000000600d178800091007800260507004d
:1009a000110020000000e00005003500d078800034
:1009b00090007800a000200068050700cf00de004e
:1009c0000100ea00000006000000060000f220001e
:1009d00000000600fdff0700f0788800e07888003e
:1009e0000000060080007800040037003104e000b9
:1009f00002003a00000051000000060001017800ea
:100a00000108a300f9ff3a00810178003101780064
:100a1000f4ef2f00020242000281ea0002016200ac
:100a20000408280004016100f7ff32008300780009
:100a3000010178003104e000fdff3a0000005100a0
:100a400000000600ec874700889fbe008a9fbe001a
:100a50008c9fbe008e1f780000067800010478008d
:100a6000180790002805900098067800cdb79f00e1
:100a7000b80590003202be002203be000400be0092
:100a80000601be004f18de006011b8008000eb00c8
:100a9000d0b79f00e1b79f00f2b79f0083bf9f00d0
:100aa000800478000900e000060032006000b80011
:100ab0006011b800040250008582580006035900f6
:100ac000878359000e00e000020035000d10a100e0
:100ad000cdb79f000900e00005003a004fb0970035
:100ae0000028a30002003a000038a30002003200f0
:100af0008a00e900010037008a007800f881570079
:100b0000a200200008007800860007000900e0002d
:100b100003003a00cfb097000128a300080032007c
:100b20000000e90000814500b1c2b3000900e00007
:100b300001003200d1c2b30001497800050037003e
:100b40000138a300030032000000e90001c2b30035
:100b500081757800480190000201e9000001510010
:100b6000808045004fb297008a0178000c00780021
:100b7000570207009c0090000188a3000400320087
:100b800098009000810f500001003d0001007800a6
:100b90004f0778004f06be004f05be004f04be0051
:100ba000cf00b100000006000200fa00889fbe00de
:100bb0008a9fbe008005780001047800020078005a
:100bc000180190002805900098007800b1bf9f00a0
:100bd000b80490000200e000020035000110a100fe
:100be000b1bf9f00ea815700820020008a00780090
:100bf0003002be002003be00080078004900070054
:100c00003fb99700f0006100030032000000e900e6
:100c100001c3b300817478003fb99700e800610018
:100c2000030032000000e90001c2b30081747800c3
:100c3000480190000201e900000151008080440059
:100c40003fba97008a0178000b0078002002070065
:100c50009b0090000188a3000400320098009000df
:100c6000810f500001003d00010078004f05be00db
:100c70004f04be000080fa0000000600ea8747002b
:100c8000889fbe008a9fbe008e1f780000047800f7
:100c9000030078007287570084e2260055c72600bb
:100ca000049fbe00c3962200030f78006c87570094
:100cb000004feb0011059000a10490009105780011
:100cc0000200e00002003200020778000100370055
:100cd000728757000000e00002003a000e00780022
:100ce00040ff07000a00e000030035008a0f5000b3
:100cf000010036000a0078000b02780089017800b4
:100d0000000178008e00780008007800f0010700ec
:100d10004f0778004f05be004f04be00af00b10082
:100d200000000600f4874700889fbe008a9fbe002f
:100d30008c9fbe008e1f78000605be000404be0016
:100d400081bf9f0082b79f00f3b79f00b000900063
:100d5000e1b79f001301780092b79f0090069000c2
:100d6000400090000000e900000678000d00e0005f
:100d700001003d001d0020008040eb00efb1970016
:100d8000817178001e0020001f0037000c06e9006a
:100d90000fb09700cf80de006109b900a0b79f00b7
:100da000b1b79f00c2b79f00d3b79f000203be0038
:100db0000002be000800be000a01be007d0507005b
:100dc000000778000e4078000043b000efb09700b5
:100dd00080707e008d06e9000fb997000201e900de
:100de00082bf9f002fb29700bfb297004fb397000a
:100df000dfb397000800be000a01be0066050700c9
:100e00000205be000004be000c00e0000d0034002e
:100e1000e00f5400e08f5c00e00f5d00e08f5d00ac
:100e2000daff3a000d00e000d8ff3c008fb99700d0
:100e30000300e000030034001fb097000018a30077
:100e4000d2ff3a000e00e00002003a00ffb0970027
:100e50001140a1000c0078004f0778004f06be003b
:100e60004f05be004f04be004f01b1000000060058
:100e70000200fa00889fbe008a9fbe00000578002d
:100e8000010478000200780018019000a804900086
:100e900098007800b1bf9f00b80590000200e00004
:100ea000020035000110a100b1bf9f00ea81570088
:100eb000a2002000890078003002be002003be009e
:100ec0000800780097ff0700480190000201e90040
:100ed00000015100808045003fba970089017800e9
:100ee0000a0078007a0107009a0090000188a300a8
:100ef0000400320098009000810f500001003d0076
:100f0000010078004f05be004f04be000080fa00cb
:100f100000000600fa874700889fbe008a9fbe0037
:100f20008c9fbe008e1f780080047800010478003a
:100f300082057800180190002805900018077800b5
:100f4000b80090000200e000020035000e10a10081
:100f5000010037001200200070006700e0b79f001a
:100f6000090032003b02be002b03be00e00f52001e
:100f7000e08f5a00e00f5b00e08f5b000200320060
:100f80008a86e900010037008a067800e8026700d7
:100f9000f5b79f00010032008d06e9003b02be005c
:100fa0002b03be00e4af9f00f5af9f0086b79f0004
:100fb00097b79f00480690000c06e9000040eb0040
:100fc00080707e00efb297007fb2970089037800af
:100fd00081047800d8af9f00020478008bbf9f0087
:100fe0008a057800034578002a0037000c06e900de
:100ff0006fab97006f006300e90f500002003c00e8
:101000000003b000010037007005b0000a03fb00c8
:101010001604b100f90f53000c003e0000037800e5
:101020000650a0001606b100f90f530007003e005d
:10103000b4b79f00a5b79f00c7b79f00d9030700ab
:10104000cfb39700afb297003fb2970080747e0095
:101050000804e9008d06e9006fa89700ffa8970033
:101060000fb197009fb19700460020008301d10087
:101070000281d3008180d3000080d3000603e90001
:10108000faff3a00e0af9f00f1af9f0082b79f00e8
:1010900093b79f00e10f56000f0034006fa8970030
:1010a000ffa897000fb197009fb19700e00f500085
:1010b000e08f5800e00f5900e08f5900cbff3a0055
:1010c0000800e000c9ff3c000d00e0000200340011
:1010d0000e18a300c5ff3a0089007800f4b79f00fe
:1010e000870478005fac97008a4178000b05780090
:1010f0008fbd97000500e000100032003b02be00eb
:101100002b03be00e4af9f00f5af9f0086b79f00a2
:1011100097b79f00e00f5200e08f5a00e00f5b008e
:10112000e08f5b00050032000c06e90083707e0052
:101130000c06e90000c3b30080707e00ffb2970088
:101140000500e000030032000c06e90000c2b30015
:1011500080707e00480190000201e9000c015100fe
:101160008c8040000e0278008a0178000900780027
:10117000d7000700990090000188a3000400320006
:1011800098009000810f500001003d0001007800a0
:101190004f0778004f06be004f05be004f04be004b
:1011a000af01b100000006000200fa00881f7800bd
:1011b00000047800e2bf9f006481570008007800b7
:1011c00082020700980090000148a300010032004d
:1011d0000080eb004f0478000080fa000000060059
:1011e000889fbe00000478004800900082047800c8
:1011f000808f5400010036008004780009017800d7
:101200005800900078fd0700580090000900400049
:1012100050049800c8009000898450004904980048
:101220000048eb004f04be000000060010007800ec
:1012300040fd3700900190000388a30001003200b8
:10124000e7ff37000348a30001003a00f7ff07005b
:101250000000060084082000848f50001d0032002a
:101260000d003c0014082000848f5000270032003d
:1012700002003c000408200004003700240820007d
:10128000848f50003400320044082000848f5000c6
:1012900043003a0036003700040a2000848f5000d3
:1012a0002700320004003c0004092000848f500015
:1012b0003b003a0028003700020c2000828f5000cb
:1012c0002f003200020f2000828f500034003a00bd
:1012d0002b0037009380e9000200e0000500320097
:1012e000810978001102fb00cfa2de00612bb9005a
:1012f0002800370081097800114278000482fb0041
:101300008002eb006033b80022003700130278003f
:10131000e40052000200e00005003200810978007c
:101320001102be004fabde008603780019003700c3
:10133000810978001102be006033b8001500370043
:101340009380e9008109780011027800cfa2de00c5
:10135000612bb9000f00370093027800e88052003b
:10136000810978003102be002103be000900370068
:101370009380e9000200e00002003200f1ff370034
:101380009380e90081097800110278008002eb0067
:101390006033b8000498be000690be00100005003f
:1013a0000000050044082000848f50002500320012
:1013b00008003c0014082000848f50001400320004
:1013c00024082000848f50002400320004082000ec
:1013d0000c00370004092000848f50001f003200e9
:1013e00004003c0084082000848f500024003a0050
:1013f0000e003700040a2000848f500011003200d4
:10140000040c2000848f50001d003a000d003700ae
:101410009380e90081097800910078000108780044
:10142000cf91de008288be00140037009380e9006f
:1014300081097800910078000108780082487800de
:101440000e0037009380e900810978009100780050
:101450000108780082087800080037009380e900ce
:101460008109780091007800010878006112b900c4
:10147000612bb9008498be008690be001000050064
:1014800000000500889fbe0000047800480090001e
:1014900082047800808f54000100360080047800b8
:1014a0000901780058009000cffc07005800900018
:1014b0000900400050049800c80090008984500042
:1014c000490498000048eb004f04be0000000600ed
:1014d000f2874700889fbe008a9fbe008c9fbe0097
:1014e0008e1f7800800478000105780002047800df
:1014f000830578006107620002003a008b0f5400f8
:1015000008003900080178008a0078000900780096
:1015100048ff07008b0f540002003900880578004f
:101520001e003700088655000c017800f00f5600a9
:101530000100360002012000010220007e805700d9
:10154000b0fc07008c06780005003700020120007f
:10155000fe8057000900780036ff0700f08656002d
:10156000ef8f5600f9ff3e004461de0000ff2f00c0
:101570000091b90002014600fe8057000900780082
:101580002cff07000e00e00004003a00080178007c
:101590008a0078000900780026ff07000b00780019
:1015a0004f0778004f06be004f05be004f04be0037
:1015b0002f01b1000000060000000500000005003a
:1015c00000000500000178000040eb008080fb0077
:1015d0008180400023ff200063c278000404e00003
:1015e00003003a0030ff200060c0780000000600d1
:1015f00092017800934f520004003a0030ff20001f
:1016000060c078000309e800010037000040e800ee
:10161000ea4f5000edff360000000600f687470055
:10162000889fbe008a9fbe008c9fbe008e1f7800e0
:10163000000578000104780083057800040678002e
:101640000000eb00c0b79f008080eb00d1b79f0087
:10165000e0b79f00f2b79f000008200080bf9f0006
:1016600098007800010078008004eb00010037004a
:101670008904e800304178000204e00003003200f1
:1016800053c2b300834f5100f9ff3a000900e00054
:1016900004003200090178000a007800e5fe070026
:1016a000188c44001807780050c2b3009e4f1000f9
:1016b0003f013a000e07e8000e0c780010003700da
:1016c000cfb097000100a0000b003700cfb097000b
:1016d0000110a00008003700cfb097000120a00043
:1016e00005003700cfb097000130a000020037009e
:1016f000cfb097000140a000c1b79f00000ce800e8
:101700001800780090407800b2c2b30082cf500039
:10171000f1ff320007003c0002c2b30082cf50004c
:10172000f0ff320032c2b30082cf500007003a000f
:10173000efff3700d2c2b30082cf5000e0ff32008b
:1017400002c3b30082cf5000e0ff3200a2c2b30058
:1017500082cf50000d003a00000ce8001c80e90028
:10176000000e780010007800e0b79f000000e00055
:101770000f003d00cfb097000100a200c1b79f004d
:101780000000ea00e0b79f0009003700840107006d
:10179000e0b79f0001003700000ce8001800780057
:1017a0009000fb000103b100e98f5000faff360002
:1017b0004fb097000008a300020032000010a10003
:1017c000c0b79f0018007800e1c2b30090cf1000ae
:1017d00016003a008000eb00d1b79f000000e8003f
:1017e000000c7800a1c2b30090cf100006003a00b0
:1017f000000ce8001c80e900000e78001000780062
:10180000d0b79f000900370065010700d0b79f00df
:1018100001003700000ce800180078009000fb0081
:101820000103b100e98f5000faff3600080078008c
:1018300064ff070080467800180078001000fb0065
:10184000d101070091062000810f500038003200be
:1018500012003c0041062000810f5000340032008d
:101860000a003c0011062000810f500020003200c9
:1018700031062000810f5000a000320051022000ec
:10188000810f5000bc003a00b40037007106200000
:10189000810f5000b8003c0088003700010720008d
:1018a000810f50005c00320007003c00e106200080
:1018b000810f50007a003200f1062000810f5000a5
:1018c000ad003a003900370051072000810f500069
:1018d0002700320081072000810f500042003200b3
:1018e00031072000810f5000a3003a008f0037001d
:1018f0008d80fb000c01780000fe2f000f004000df
:10190000b30107000000e000a800320018007800d2
:10191000000ce8009041780002fe2f000f0141000a
:10192000f88057000a00780024ff07000e003700f7
:101930008d80fb008c0178001200200000fe2f003b
:101940000f00400043fe07000000e0009700320057
:10195000180ce80002fe2f000f014100f88057002c
:101960000a00780037fc07008084440090003700ac
:101970008d80fb008c0178000001eb0000fe2f0041
:101980000f00400033fe07000000e0008700320037
:10199000180ce80002fe2f000f014100f8805700ec
:1019a0000a00780032fd0700efff37008d80fb0052
:1019b0008c0178000001eb0000fe2f000f004000ba
:1019c00024fe07000000e00078003200180ce80058
:1019d00002fe2f000f014100f88057000a00780036
:1019e00071fc0700e0ff37008d80fb008c01780060
:1019f0000001eb0000fe2f000f00400015fe070065
:101a00000000e0006900320018007800000ce800d7
:101a1000904178001c0037008c0178000001eb0039
:101a2000010f200000fe2f000f00400009fe0700fc
:101a30000000e0005d003200180ce8000fb09700d5
:101a40009fb097002fb19700bfb19700e00f5000f3
:101a5000e08f5800e00f5900e08f590009003a006c
:101a6000cfb597006fb49700a0fe2000ddfb070004
:101a70000b0278008801780000017800a1fe2000a8
:101a80004700370083c7b30002fe2f000f0141005b
:101a9000f88057000a0078001efd0700b2ff3700eb
:101aa0000b8144008d80fb008c01780000fe2f002c
:101ab0000f0040003bfe07003c0037008d80fb001c
:101ac0000c01780000fe2f000f00400040010700cd
:101ad0000000e0003500320018007800000ce8003b
:101ae0009041780002fe2f000f014100f88057005e
:101af0000a007800b1fe07009bff370000c8b30062
:101b000080cf560029003a00180ce8001c80e9003c
:101b1000000e780010407800e0df9f0013002000e6
:101b2000e2fd2f000f0141000800370000c8b3009c
:101b300080cf56001d003a00180ce8001c80e90018
:101b4000000e78008001eb0010017800f88057004b
:101b50000a00780049fc070083ff370000c8b30083
:101b600080cf560011003a00180ce8004fb29700e1
:101b7000efb19700080037000e0c78000000eb0072
:101b8000c0b79f00e0b79f000080eb00d0b79f0078
:101b90000002eb00840178001200200001ff200009
:101ba0000a0078004afe07006fff3700180ce800b3
:101bb000090078004f0778004f06be004f05be00b1
:101bc0004f04be006f01b100000006008200fa0061
:101bd000889fbe008a1f7800000578008204780084
:101be000c13f9f000004eb0010003700090278009d
:101bf00088017800a2f72f000f01410081f72f0024
:101c00008f8040000a00780084fe07000800400032
:101c1000880f500004003d00b0042000c0818800ff
:101c20000084eb0004003700000478004f38970070
:101c30001004e000edff3a00080078004f0578003e
:101c40004f04be000080fa0000000600889fbe001e
:101c50000004be000000eb000800e00018003200a5
:101c6000180090000058a3000d003200d80090002a
:101c700068009000808f500009003600b80990007d
:101c80000001eb00820078000800780003000100ea
:101c9000d80090000080eb000100e0000800320056
:101ca0000000eb00200c980060049800500498009d
:101cb0000900e00002003200180078006a110700f5
:101cc0004f04be0000000600889fbe000004be0056
:101cd0000000eb000800e000250032001800900032
:101ce0000058a30011003200d80090006800900056
:101cf000808f500009003600b80990000001eb0009
:101d0000820078000800780003000100d8009000ed
:101d10000080eb000100e000150032000000eb0045
:101d2000200c98006004980050049800780a9000f5
:101d300008109000800f520006003100000252008f
:101d400011002000cfa2de00612bb900180078003e
:101d5000650007000000eb0000149800700c98006c
:101d60000900e00002003200180078003e11070070
:101d70004f04be0000000600800078001000200024
:101d800002022000828f500004003200e9805000df
:101d9000e48f5000010036000000eb000000060058
:101da000889fbe008a1f7800000578000a0478002a
:101db000984478000805e8000900fb00eeff0700e2
:101dc0000000e000f9ff3a00b0c2b30080cf540039
:101dd00005003200d0c2b3008000eb0080cf540079
:101de00005003a00020037008000eb0001003700d8
:101df000110020000804e8000000eb000300370099
:101e00006a02b900020052000003b0003801fb0072
:101e100003fd2f0082814100e98f5100f8ff360059
:101e20000100e00001003a000000ea004f057800e0
:101e30004f04be0000000600889fbe008a1f780085
:101e4000800478000105780009007800e5fa0700b1
:101e5000000478008a017800080178001100200051
:101e6000090078000a000700800078000080eb007d
:101e7000888f500001003a000000eb004f05780009
:101e80004f04be00000006001000780029fa370059
:101e9000889fbe008a9fbe008104780002047800fb
:101ea00009c5b9000900e00001003a000004eb0098
:101eb0000a0178008000780003007800dbfc07004e
:101ec000800078008a8f5000030032001100090062
:101ed0008980d80000047800080078004f05be0013
:101ee0004f04be0000000600a0fd2f00f1ff2f00f0
:101ef0001b0007004f89de00820178000000060009
:101f00000200fa0081017800e0ff9f00930090003a
:101f10000188a30005003200d300900080587800ab
:101f20000080fb00d10198000a0037001200200059
:101f30008f80e90003007800bcfc07008000780077
:101f40000080eb000100e00002003200eff8970093
:101f50000180fb000080fa0000000600e8ff370067
:101f600002002f00f3ff2f00820f5000838f5800d4
:101f7000040036000000ea00c08188000080eb0009
:101f80008080eb0000000600f1fb2f008080400005
:101f9000f98f500001003e000050a0000000060034
:101fa000f9ff3700f1f92f0080804000f98f5000d1
:101fb00001003e00f005b20000000600f9ff370006
:101fc0000000060083fa0700fdff0700fcff370052
:101fd000881f78000004780000082000808f5000df
:101fe0001700350010082000808f50000b003400cf
:101ff00030082000808f500011003a0092007800d5
:1020000068805000000978003002be002003be0046
:10201000049cbe000694be000700370092027800c0
:1020200064805200000978001000be00070007001d
:10203000009cbe000294be0010002000010037008a
:102040000000eb004f0478000000060081037800d8
:102050001d0007000001be006000b8000478a30066
:1020600013003a006220e10015003e000d00390027
:102070008301d1000281d3008180d3008301d1008c
:102080000281d3008180d3008301d1000281d3007b
:102090008180d3000538b000c42add00f300b2000f
:1020a0008381720007f0a70003f0a0000000060083
:1020b00083ff2700020020006110b900f9ff3700fc
:1020c00003ff2700f7ff3700c70ade00f107b20061
:1020d000f50fb20008003200e1cf420002003200ea
:1020e0000170a00024000500810f70000100320083
:1020f0000408050044000500810f700002003a004a
:10210000140005008502e9000000400081c048007d
:10211000fcff3b000170a00024000500020ab9008a
:10212000001bb9000200b80081004200810043009a
:1021300000000600889fbe008a9fbe003004420057
:10214000b0844a0030054b0090854b006000b10020
:102150000898be000a90be000440e10005c8e100f6
:1021600006d0e10007d8e10002003100680040001d
:102170001008e8004f05be004f04be000000060036
:10218000889fbe008a9fbe003004be002005be00ae
:102190000418540005985c0006185d0007985d005f
:1021a000110020000440e10005c8e10006d0e10074
:1021b00007d8e100010039008000eb001088100012
:1021c0004f05be004f04be00000006001200fa00da
:1021d000889fbe008a9fbe008c9fbe00e0b79f0014
:1021e000f1b79f0082bf9f0093bf9f000605be000e
:1021f0000404be000000eb00d0b79f00c0b79f00f2
:10220000b0b79f00a0b79f0090b79f00000678006e
:102210005fb19700cfb09700820141003fb09700b7
:102220000200e00004003d00370007007e805700f8
:10223000c0ff070003003700330007007e8057000f
:10224000cfff0700dfb697000d00e0000c0035005f
:102250006fb29700ffb297000fbb97009fbb97002c
:1022600010002000010020006011b8000002720080
:102270008182720002037300838373001b000700d6
:102280000c06e80001042000810f5600e0ff3a0030
:102290000d00e00004003d000802be000a03be007d
:1022a0007e805700a3ff07005fa897000000e000b2
:1022b00005003a001fb29700afb297003fb39700f6
:1022c000cfb39700090007006fb09700ffb09700e9
:1022d0000fb997009fb997004f06be004f05be008b
:1022e0004f04be000080fa00000006000100070055
:1022f00000000600a4b79f00b5b79f00c6b79f00b7
:10230000d7b79f00000006004f09de0082817100f0
:10231000b3b79f004f01de008180400082807000d3
:10232000a1b79f008fb097004f09de00000040006a
:102330000200700090b79f007fa897004f01de0059
:10234000818040008280700081b79f000d000700ef
:102350004f3ade000000400004007000f0af9f0024
:10236000080007000402420085824a0006034b0071
:1023700087834b00dfff07000802be000a03be0090
:10238000000006002fb29700bfb297004fb397002e
:10239000dfb3970000000600881f780018002000b7
:1023a000881f780089ff07008f87e9004f047800b5
:1023b00000000600801feb0084ff07008f87e90004
:1023c00000000600889fbe008a9fbe00e00f5000fc
:1023d000e08f5800e00f5900e08f59000c003d00dd
:1023e0006044b8006055b8000000540081805c0073
:1023f00002015d0083815d001800200015000700c8
:1024000008003d00180007000004eb00050037003d
:102410000004eb000f00070002003d00120007005f
:1024200018002000dcff07000800e0000600320072
:102430006022b8006033b8000000520081805a006a
:1024400002015b0083815b004f05be004f04be00ac
:1024500000000600e00f5200e08f5a00e00f5b0022
:10246000e08f5b00000006006044b8006055b800d3
:102470000402540085825c0006035d0087835d00d2
:1024800000000600889fbe008a9fbe008c1f780057
:10249000e00f5000e08f5800e00f5900e08f590026
:1024a0000d003d006044b8006055b80000005400c5
:1024b00081805c0002015d0083815d001c002000c2
:1024c0000820e10009a8e1000ab0e1000bb8e10032
:1024d0000d003d00080037000006eb00e00f520041
:1024e000e08f5a00e00f5b00e08f5b0006003d00cc
:1024f0006044b8006055b8000402540085825c0056
:1025000006035d0087835d00aaff07000c00e00062
:10251000060032006022b8006033b80000005200ac
:1025200081805a0002015b0083815b004f067800c6
:0c2530004f05be004f04be000000060076
:020000040000fa
:10253c00686f00006d6500002f740000657300006b
:10254c0074000000486500006c6c00006f200000f7
:10255c004d51000054540000203a000029000000a6
:10256c00686f00006d6500002f740000657300003b
:10257c0074000000000000000000000000000000db
:10258c00000000000000000000000000000000003f
:10259c00000000000000000000000000000000002f
:1025ac00000000000000000000000000000000001f
:1025bc00000000000000000000000000000000000f
:1025cc0000000000000000000000000000000000ff
:1025dc0000000000000000000000000000000000ef
:1025ec0000000000000000000000000000000000df
:1025fc0000000000000000000000000000000000cf
:10260c0000000000000000000000000000000000be
:10261c0000000000000000000000000000000000ae
:10262c0000000000000000004d6900006372000013
:10263c006f63000068690000705f00006163000058
:10264c003136000034310000363400000043000005
:10265c006f6e00006e65000063740000656400001e
:10266c00207400006f200000415000000057000053
:10267c00694600006920000045720000726f00007e
:10268c007200000055500000433400003438000044
:10269c0039360000393800005f3200002e3400005b
:1026ac00474800007a000000506100007765000088
:1026bc006c3100003330000031330000300000007a
:1026cc00436f00006e6e00006563000074690000cb
:1026dc006f6e0000207300007461000074650000d0
:1026ec005f43000075720000726500006e7400009c
:1026fc003a20000025640000200a00000d000000b4
:10270c00436f00006e6e000065630000746900008a
:10271c006f6e00002073000074610000746500008f
:10272c005f480000616e0000646c00006572000080
:10273c003a20000025640000200a00000d0a000069
:10274c000d0000005769000046690000206500007c
:10275c00766500006e74000020630000616c000060
:10276c006c620000616300006b0a00000d00000049
:10277c005374000061720000742000004578000062
:10278c00616d0000706c0000650a00000d00000017
:10279c0050610000776500006c31000033300000a0
:1027ac00313300003000000055500000433400006d
:1027bc003438000039360000393800005f32000030
:1027cc002e340000474800007a0000002564000009
:1027dc00200a00000d000000027900009680000025
:1027ec00607900007a790000ac790000da79000099
:1027fc000a7a0000167a00003c7a0000207a000069
:10280c00256c0000642000002d3e0000200000001c
:10281c004e5500004c4c000000000000cfff0000a3
:10282c00ffff000000c9000000e8000024000000c9
:10283c0000000000525c00006c3700007a28000099
:10284c00cc6d0000cc6d0000cc6d0000cc6d000098
:10285c00cc6d00002001000003000000000000000f
:0c286c002001000000000000000000003f
:020000040000fa
:102878000000fa001e08a8006000b8000080fa00f6
:10288800000006000000fa001e28a800e07680007c
:102898004800de00f2768000f10f20008100610020
:1028a800c808dd0001007000c800dd004800de0037
:1028b800008070000000e9008000eb00823e2000ec
:1028c8000289b900020178006002b9008401780029
:1028d80003014100833e20000300b80001014100cc
:1028e800820078000080fa00000006000000fa006c
:1028f8001e48a80000532700010020000080fa00ad
:10290800000006000000fa001e68a8006000b80079
:102918000080fa00000006000000fa001e88a800e7
:102928006000b8000080fa00000006000000fa000d
:102938002628ef000080fa00000006000000fa00d8
:10294800304180000080fa00000006000400fa0010
:10295800100798000000eb00000f7800d20120005b
:102968008000eb0000ed2000a4f7070081768000ce
:10297800f0f02f00008060000040a0008076880002
:10298800807680000030a100807688008176800003
:1029980090ff2f000080600080768800807680009d
:1029a8000000a1008076880050ed20008040eb00f8
:1029b8000148780060ed200041c0b300014878006c
:1029c80070ed2000d1c4b3000148780080ed2000ec
:1029d80011c5b3000148780090ed200041c5b3004f
:1029e80001487800a0ed200041c5b30001487800f7
:1029f800b0ed200041c0b300014878001e009000ef
:102a0800f05090008180fb00005890000080fb008f
:102a18004800dd00008070000000e00009003a0076
:102a28001e009000b05090008180fb004050900044
:102a38000080fb004800dd00008070000000e0001e
:102a480004003200c0ed200021ccb300014878001a
:102a580003003700c0ed200021c0b3000148780012
:102a68001e009000d04890008180fb0060489000d4
:102a78000080fb004800dd0000807000c800dd0019
:102a88004800de0000807000f10f20008100600027
:102a9800c808dd00e3768000f20f200002816100a3
:102aa80082807000e1768800c800de00f00f200008
:102ab80000806000f276800001f02f008100610044
:102ac80001007000f07688001e0090009050900081
:102ad8008180fb00205090000080fb004800dd0052
:102ae80000807000f10f200081006000c808dd0040
:102af80003778000f20f200002816100828070005d
:102b080001778800c800de00f00f20000080600018
:102b18001277800001f02f00810061000100700031
:102b280010778800007780004800de001277800068
:102b3800f10f200081006100c808dd00010070006d
:102b4800a6f70700f10f200081006000c808dd002b
:102b5800f3768000f20f200002816100828070000d
:102b6800f1768800c800de00f00f200000806000c9
:102b78000277800001f02f008100610001007000e1
:102b880000778800c0ed2000104078000044b200b3
:102b98000004e0002e0032001e00900090589000c3
:102ba8008180fb00205890000080fb004800dd0079
:102bb80000807000f10f200081006000c808dd006f
:102bc80043778000f20f200002816100828070004c
:102bd80041778800c800de00f00f20000080600008
:102be8005277800001f02f00810061000100700021
:102bf800507788001e009000f05090008180fb0004
:102c0800005890000080fb004800dd000080700044
:102c1800f10f200081006000c808dd0033778000d4
:102c2800f20f2000028161008280700031778800f5
:102c3800c800de00f00f20000080600042778000ae
:102c480001f02f00810061000100700040778800ca
:102c5800c0ed20009040780000c8b30000c06000bc
:102c68000004e0002e0032001e009000d0509000ba
:102c78008180fb00605090000080fb004800dd0070
:102c880000807000f10f200081006000c808dd009e
:102c980023778000f20f200002816100828070009b
:102ca80021778800c800de00f00f20000080600057
:102cb8003277800001f02f00810061000100700070
:102cc800307788001e009000b05090008180fb0093
:102cd800405090000080fb004800dd00008070003c
:102ce800f10f200081006000c808dd001377800024
:102cf800f20f200002816100828070001177880045
:102d0800c800de00f00f20000080600022778000fd
:102d180001f02f0081006100010070002077880019
:102d2800c0ed20009040780000c8b30000c06000eb
:102d38000004e00009003a00f07680004800de0058
:102d480002778000f10f200081006100c808dd00d3
:102d580001007000000f780019003700f07680003d
:102d68004800de0002778000f10f2000810061003a
:102d7800c808dd000100700080007800307780000e
:102d88004800de0043778000f20f200002816100d6
:102d98004811dd000200700080804000107780003c
:102da8004800de0023778000f20f200002816100d6
:102db8004811dd000200700000804000640f4000f0
:102dc8009e0078006c804000f10f200081006000b8
:102dd800c808dd0053778000f20f200002816100ef
:102de8008280700051778800c800de00f00f200054
:102df800008060006277800001f02f008100610090
:102e08000100700060778800c0ed200090407800d5
:102e180000c8b30000c060000004e00005003a00ec
:102e2800c0ed2000104078000044b2000004e0002b
:102e380034003200307780004800de00427780009e
:102e4800f10f200081006100c808dd00010070005a
:102e5800c800dd004800de0000807000f10f20008f
:102e680081006000c808dd0033778000f20f200081
:102e7800028161008280700031778800c800de001e
:102e8800f00f2000008060004277800001f02f00e2
:102e98008100610001007000407788001077800091
:102ea8004800de0022778000f10f200081006100d9
:102eb800c808dd0001007000c800dd004800de0021
:102ec80000807000f10f200081006000c808dd005c
:102ed80013778000f20f2000028161008280700069
:102ee80011778800c800de00f00f20000080600025
:102ef8002277800001f02f0081006100010070003e
:102f080020778800f07680004800de000277800095
:102f1800f10f200081006100c808dd000100700089
:102f2800c800dd004800de0000807000f10f2000be
:102f380081006000c808dd00f3768000f20f2000f1
:102f48000281610082807000f1768800c800de008e
:102f5800f00f2000008060000277800001f02f0051
:102f68008100610001007000007788001a68ef0096
:102f78001a08a800100020003041880010c0b300d3
:102f88000080fa00000006000400fa00100798000c
:102f98000040eb00004f7800020120008000eb00a9
:102fa800e0ee200015f6070030418000e30f5000e6
:102fb800ad003a0071778000f0f02f00808060004b
:102fc8000003200001007000707788001e00900048
:102fd8001080fb004300de00614060000080fb00c1
:102fe800610060004300dd00717780000130a100be
:102ff80001007000707788001e0090001080fb00b0
:103008000000d100634060000080fb0063006000a6
:10301800000040007277800091ff2f00810061005e
:103028000100700070778800e0ee20001040780002
:10303800664060000004e00008003a00e0ee20006e
:1030480010407800684060000004e000030032008f
:10305800707780000030a100707788001e00900013
:103068009040780061c060000080fb006100600053
:10307800717780000100a10001007000707788005e
:103088001e009000f04090008180fb0000489000f6
:103098000080fb004800dd0000807000f10f200078
:1030a80081006000c808dd00a3778000f20f2000cf
:1030b8000281610082807000a1778800c800de006c
:1030c800f00f200000806000b277800001f02f0030
:1030d8008100610001007000b07788001e00900038
:1030e800f04090008180fb00004890000080fb00c9
:1030f8004800dd000080700038f60700f10f20005e
:1031080081006000c808dd0093778000f20f20007e
:10311800028161008280700091778800c800de001b
:10312800f00f200000806000a277800001f02f00df
:103138008100610001007000a07788001e009000e7
:103148001080fb000000d100634060000080fb009d
:103158000000e0000b0034001e0090009048900032
:1031680070ef2000014878001e009000a0489000f1
:1031780080ef200001487800e07780000080e800b8
:10318800e07788001e009000c04890008180fb0016
:10319800504890000080fb004800dd00008070006f
:1031a800d07788001e009000b048900090ef200073
:1031b80001487800e1778000907780004800de00c1
:1031c800a3778000f20f2000028161004811dd0022
:1031d800020070000001780090ef20001040780095
:1031e8000080fb0000004100008040000080e800f3
:1031f800e0778800907780004800de00a2778000a2
:10320800f10f200081006100c808dd000100700096
:10321800c800dd004800de0000807000f10f2000cb
:1032280081006000c808dd0093778000f20f20005d
:10323800028161008280700091778800c800de00fa
:10324800f00f200000806000a277800001f02f00be
:103258008100610001007000a07788001a48a8006a
:1032680010c0b300004f78001e4078000080fa00bc
:10327800000006000400fa00100798000040eb0068
:10328800104798000040eb00004f78003041800064
:10329800e30f500094003a00e040800064006000b2
:1032a8000000e00090003a00e20020008000eb00ff
:1032b800e0ef200051f50700f1778000f0f02f00d3
:1032c800008060000070a000f0778800f077800030
:1032d8000030a100f0778800f177800090ff2f0080
:1032e800008060000010a000f0778800f077800070
:1032f8000000a100f07788001e009000d0409000e8
:1033080030f02000014878001e009000e040900056
:1033180040f02000014878000040eb00104798007a
:10332800680037001e4090008081fb001e4090001e
:103338000080fb001e0190006500b90000007800c5
:103348006600400080004100914090008180fb00b1
:1033580000004100204090000080fb004800dd0094
:10336800008070004801dd00c800de0081007100a7
:103378006519b9000201780040f020000000410002
:10338800f20f20000281600090419000e0c16100ce
:1033980002c1710012409800c808de002041900068
:1033a8006041610081407100214098001e409000fa
:1033b8008081fb001e4090000080fb001e019000f1
:1033c8006500b900000078006800400080004100f6
:1033d800914090008180fb00000041002040900057
:1033e8000080fb004800dd000080700000017800cc
:1033f8006518b9008000780060f020000080400067
:10340800f10f20008100610090419000e0c161004f
:1034180081c0710011409800c810de002041900062
:103428006041610081407100214098001e40900079
:103438008081fb001e4090000080fb001e01900070
:103448006500b900000078006a00400000004100f3
:10345800104190006518b9008000780080f02000c5
:103468000080400012409800527880001e40900072
:103478000080fb006500b90000007800e60040000d
:10348800e0ef200000804000904090008180fb0029
:10349800204090000080fb004800dd0000807000a4
:1034a800c800dd004800de00008070000000410018
:1034b80063004000507888001e4090000040e800fb
:1034c800104798001e4090000004e00095ff32006d
:1034d800507880000080e800507888001a68a800ba
:1034e80010c0b300004f78001e4078000080fa003a
:1034f800000006000400fa00100798000040eb00e6
:10350800104798000040eb00004f780030418000e1
:10351800e30f5000b8003a00e04080006800600007
:103528000000e000b4003a00d20020008000eb0068
:10353800c0f02000b1f4070061788000f0f02f009f
:1035480080806000000a2000010070006078880018
:10355800607880000030a100607888006178800081
:1035680090ff2f00008060000010a00060788800a5
:10357800607880000000a100607888001e0090003c
:10358800d040900010f12000014878001e00900003
:10359800e040900020f12000014878000040eb0056
:1035a80010479800760037001e4090000081fb000d
:1035b8001e4090000080fb009e0090004200dd004d
:1035c8006600400080814000934190008381fb00a9
:1035d80000804000204090000080fb004800dd0093
:1035e80000807100c801dd00c800de008180710024
:1035f8004211dd0020f1200000004100f20f200000
:10360800028160004811dd0010027800f30f2000ed
:103618008301620003017100020878004809de0096
:10362800f10f2000810061009001900002f02f004e
:103638000281610082807000110098001e40900095
:103648000081fb001e4090000080fb009e0090005f
:103658000080e8004200dd00808140009341900036
:103668008381fb0000804000204090000080fb0028
:103678004800dd0000807100800078000280e800ca
:103688004201dd00c0f0200000004100f20f2000e0
:10369800028160004811dd0010027800f30f20005d
:1036a8008301620003017100020878004809de0006
:1036b800f10f2000810061009001900002f02f00be
:1036c800028161008280700011009800b07880004b
:1036d8004800de00c2788000f10f20008100610000
:1036e800c808dd0001007000800078001e409000ce
:1036f8000080fb004200dd0066014000c0f02000b1
:1037080000004100100178004811de00900190008f
:10371800f00f2000008061004800dd00000071000b
:103728004801dd004800de00000071000080400014
:103738000080e800f10f200081006000c808dd006b
:10374800b3788000f20f200002816100828070004f
:10375800b1788800c800de00f00f2000008060000b
:10376800c278800001f02f00810061000100700024
:10377800c07888001e4090000040e800104798007c
:103788001e4090000004e00087ff3200b0788000ff
:103798004800de00c2788000f10f2000810061003f
:1037a800c808dd00010070000080e800f10f20006b
:1037b80081006000c808dd00b3788000f20f2000a7
:1037c8000281610082807000b1788800c800de0044
:1037d800f00f200000806000c278800001f02f0008
:1037e8008100610001007000c07888001a88a80074
:1037f80010c0b300004f78001e4078000080fa0027
:10380800000006000400fa00100798000040eb00d2
:10381800004f78001e009000192d07001e00900030
:1038280068004000162d07001e00900012002000be
:1038380001ed20001d2d0700507780004800de00b4
:1038480062778000f10f200081006100c808dd0068
:103858000100700011ed2000c80007008080fb0007
:103868001e0090000101780011ed20000f2d0700c7
:103878001e009000a200200051ed20000b2d070033
:10388800f1ed20001e00900022002000072d070007
:10389800007780004800de0012778000f10f2000da
:1038a80081006100c808dd00010070004bf40700ca
:1038b80000017800007780004800de001377800060
:1038c800f10f200081806100c808dd000100700050
:1038d800800078001e009000f42c070030778000ec
:1038e8004800de0042778000f10f2000810061006f
:1038f800c808dd00010070000000e00009003a007f
:10390800107780004800de0022778000f10f200049
:1039180081006100c808dd00010070000000e000bf
:103928003200320031ee20001e00900022002000fc
:10393800de2c0700107780004800de002277800028
:10394800f10f200081006100c808dd00010070004f
:10395800c800dd004800de0000807000217780008c
:10396800c808de0033778000f20f20000281610072
:103978004811dd00828070009e01900000017800ef
:1039880003007800c92c070071ee20001e0090008b
:1039980022002000c52c0700307780004800de0098
:1039a80042778000f10f200081006100c808dd0027
:1039b80001007000c800dd004800de0000807000d3
:1039c80041778000c808de0053778000f20f20009e
:1039d800028161004811dd00828070009e01900024
:1039e8000001780003007800b02c07001e0090004a
:1039f800b6300700004f78001e4078000004e00051
:103a0800010032001a08a9001e4078000080fa0060
:103a1800000006000400fa00100798000040eb00c0
:103a2800004f78001e009000952c07001e009000a3
:103a380068004000922c07001e0090001200200031
:103a4800e1ee2000992c0700e0778000f1ee2000dd
:103a58004a0007008080fb001e00900001017800ea
:103a6800f1ee2000912c070031ef20001e0090009d
:103a7800220020008d2c0700907780004800de008f
:103a8800a2778000f10f200081006100c808dd00e6
:103a980001007000c800dd004800de0000807000f2
:103aa800a1778000c808de00b3778000f20f2000fd
:103ab800028161004811dd00828070009e01900043
:103ac8000001780003007800782c0700e0ee200061
:103ad8001040780066406000e24f500008003a004d
:103ae8001e0090001200200081ef20006f2c0700bc
:103af8001e0090001200200071ef20006b2c0700c0
:103b080090ef2000104078000081fb00d177800002
:103b18001e009000652c0700d04080006400600003
:103b28000000e00005003a00e0ee200010407800b8
:103b3800684060000004e0000d0032001e009000a4
:103b480062300700004f78001e4078000004e00053
:103b5800070032001a48a900e0ee20001040780063
:103b680066406000e24f500001003a001ca8a8001f
:103b78001e4078000080fa00000006000600fa00e7
:103b880010079800210798000040eb0010479800a4
:103b98001e00900000407800804078000174a10069
:103ba800014f78001e0090004700de0010079800c3
:103bb8001e0090000000e000010032001e74a0000a
:103bc8001e4090000080fb00ae0090000080400086
:103bd8001e4878001e4090000040e80010479800fa
:103be8001e0090000000e000e9ff3a001e4090002f
:103bf8000080fa00000006000e00fa006007980036
:103c08001000200001002000008fbe006000b800f6
:103c180020079800310798006000b8004007980016
:103c2800510798002e0037004e009000ee009000db
:103c380000804000104078000081fb008001eb000c
:103c4800f00720000100200002037800030178003b
:103c58008001780081007800030063008100610022
:103c680081027800000278000400be001e0178007e
:103c78000191b900020178009e019000009bb900f3
:103c880086017800030141009e0178000018b80001
:103c980001014100820078002e019000be019000d1
:103ca80002004000838048002007980031079800f0
:103cb8001e01be004718dd00c910de00810070003b
:103cc8004710dd00008fbe004e009000de0090001f
:103cd80061004000e08048004007980051079800c4
:103ce8004e009000de009000e00f5000e08f58007a
:103cf800cdff32004e0090000000e900ee00900079
:103d080000804000104078000004e000c6ff350045
:103d18002e009000be0090000080fa00000006000f
:103d28000200fa00000f780030418000e30f5000d5
:103d38000300320030418000e20f500005003a00d5
:103d480020fa2000942207001e0078002e040700a5
:103d58002628ef00304180000080fa0000000600ad
:103d68000400fa0010079800220020008000eb00f1
:103d78000e007800a1f207001e00900068004000c5
:103d8800120020008e007800412c0700e0768000a9
:103d98004800de00f2768000f10f2000810061000b
:103da800c808dd0001007000c800dd004800de0022
:103db800008070000000e000010032001aa8a8008e
:103dc8001e00900068004000ad2b07000080fa003c
:103dd800000006001000fa00700798000040eb0091
:103de800304798000040eb002047980064004700e7
:103df800920020008000eb0080f2070030002000d5
:103e0800000f78007e00900068004000e400470042
:103e1800120020001e2c07007e0090006800400061
:103e2800e40047008100e80012002000182c070079
:103e38007e00900068004000e4004700e5804000f4
:103e480012002000122c07007e009000680040003d
:103e5800e4004700e6804000120020000c2c070018
:103e6800ae48900030f020001040780080cf50001d
:103e780005003a009e48900040f02000104078006d
:103e880080cf5000030032000000eb00000f7800e4
:103e98002500370064004700e70040007e009000de
:103ea8006800400012002000f92b070010c0b30082
:103eb800304798000040eb00204798001600370074
:103ec8002e4090000080fb0063004000000040008e
:103ed80000004700a0009000c808de0030019000f4
:103ee800f00f2000000061004800dd000080700035
:103ef8008000780000082000808f500003003a00fe
:103f08000000eb00000f7800070037002e409000fb
:103f18000040e80020479800ae4090003e409000e6
:103f280080cf5000e6ff39001c48a9007e009000b1
:103f380068004000522b07001e0078000080fa003d
:103f4800000006000800fa00300798000e80e8001c
:103f5800420020008000eb0028f20700300020001b
:103f6800000f78003e009000680040008e80e80056
:103f780012002000c62b07003e0090006800400099
:103f88008e80e8008100e80012002000c02b0700a6
:103f98003e409000e24f5000030032000000eb006a
:103fa800000f7800180037003e00900068004000bd
:103fb8008e80e8008180e80012002000b42b070002
:103fc8003e009000680040008e80e800e3804000da
:103fd80012002000ae2b0700de40900010f12000f8
:103fe8001040780080cf500005003a00ce40900085
:103ff80020f120001040780080cf500002003200ed
:104008000000eb00000f78001c68a9003e0090003b
:10401800680040001a2b07001e0078000080fa0094
:10402800000006004801fa00302799006000b80037
:1040380010079800210798006a0047000201200035
:104048008000eb00edf107007a00470042062000ef
:104058008000eb00e9f10700e00720000e004000b7
:10406800820c20008000eb00e4f107003e20910064
:1040780068004000ea00470012002000842b070077
:104088003e20910068004000ea0047008100e800f7
:10409800120020007e2b070010c0b300004f7800ec
:1040a800090037001e80fb00ea0047008100e80095
:1040b800808040003e2091006800400012002000ef
:1040c800732b07001e4fe8001e80fb000000e9006c
:1040d80000004700304890000004e00003003d0065
:1040e8001e407800e34f5000eeff36006a0047009c
:1040f8000000e800c0fe070010079800210798009c
:104108006a004700e50040003e209100680040003a
:10411800220020005e2b07001e009000ae009000d9
:1041280062005000e08058001007980021079800ae
:104138007a004700f10f200081006000c808dd0008
:104148008e099000f20f20000281610082807000c9
:10415800010f9800c800de00f00f2000008060000a
:104168001e09900001f02f0081006100010070001d
:10417800100f98007e0090004800de000e099000a5
:10418800f10f200081006100c808dd000100700007
:10419800c800dd004800de00008070008e08900036
:1041a800c808de009e099000f20f2000028161001d
:1041b8004811dd00828070003e219100e801410035
:1041c8000001780003007800312b07007e00900082
:1041d8004800de000e099000f10f20008100610008
:1041e800c808dd0001007000c800dd004800de00de
:1041f800008070008000eb001e019000ae0190006e
:10420800000051008180590010079800210798008c
:10421800e00720000e004000300f98001e019000bb
:10422800be0890003e20910068004000182b07004f
:10423800f82f0700300798003e0090000000e000cb
:104248000a003200be0890000e0890004800de0008
:104258009e099000f20f2000028161004811dd00e4
:10426800020070003e019000020001003e20910013
:1042780068004000822a07003000200040079800ac
:104288004e0090000080fa00000006000600fa00c8
:1042980020079800420020008000eb000e00780004
:1042a80056f107002e009000680040001200200020
:1042b8008e007800f62a07002e0090006800400063
:1042c8008e00e80012002000f12a07002e0090005e
:1042d80068004000e300470012002000ec2a0700b5
:1042e8002e009000680040008e80e8001200200038
:1042f800e72a0700ae40900070ef200010407800d9
:1043080080cf500006003a00be40900080ef2000a9
:104318001040780080cf500001003a001ca8a90086
:104328000080fa00000006000000fa00004180004a
:104338000080fa00000006000000fa002182200038
:1043480091407800014878000080fa0000000600db
:104358000000fa00204180000080fa0000000600fa
:104368000600fa00200798000040eb00004f780094
:104378000040eb00104798000000eb001007980081
:104388002028ef0030418000e10f50000300360084
:10439800e30f50001b003200d4003700d0408000eb
:1043a800610060000000e0000b0032002e00900069
:1043b80014fd0700004f78001e4078000004e0005c
:1043c800030032005000200000418800020037003e
:1043d80060002000004188001e4078000004e000d2
:1043e800bf003200025327000300200080f920009c
:1043f8004a21070020002000304188001e08a9003b
:10440800ba0037001ac8bf000004e000b600320046
:10441800030037001e4090000040e8001047980055
:104428001ac8bf008080fb001e4090000080fb007f
:104438000088de00610060000000e000f5ff320047
:104448001e4090000080fb00110020000008dd00e5
:104458004041880040418000e80f50004800320089
:10446800e80f500003003e00e40f50001300320034
:1044780099003700f00f50006c0032000102200054
:10448800810f50000100320093003700f040800097
:10449800620060000000e000070032001e28a9004a
:1044a8002e009000220207000004e0000200320003
:1044b80050002000004188008800370020fa2000c2
:1044c800b52007002e00900052fd0700004f78002d
:1044d8001e4078000004e000270032005000200051
:1044e80000418800e07680004800de00f276800017
:1044f800f10f200081006100c808dd000100700094
:10450800c800dd004800de000100700010079800b8
:10451800e07680004800de00f2768000f10f20008f
:1045280081006100c808dd00010070000000e000a3
:10453800120032001e0090000000e9008000eb002d
:10454800823e20000289b900020178006002b900a9
:104558008401780003014100833e20000300b80075
:1045680001014100820078000001be0020fa20000d
:10457800ea200700010037002628ef00570037001f
:104588002e0090001b0107000004e000020032002a
:104598005000200000418800e07680004800de00de
:1045a800f2768000f10f200081006100c808dd006c
:1045b80001007000c800dd004800de000100700046
:1045c80010079800e07680004800de00f276800050
:1045d800f10f200081006100c808dd0001007000b3
:1045e8000000e000100032001e0090000000e9000a
:1045f8008000eb00823e20000289b90002017800a9
:104608006002b9008401780003014100833e200064
:104618000300b80001014100820078000001be00db
:1046280020fa2000bd2007002c0037002e00900043
:104638005a0107000004e000020032005000200088
:1046480000418800e07680004800de00f2768000b5
:10465800f10f200081006100c808dd000100700032
:10466800c800dd004800de00010070001007980057
:10467800e07680004800de00f2768000f10f20002e
:1046880081006100c808dd00010070000000e00042
:10469800100032001e0090000000e9008000eb00ce
:1046a800823e20000289b900020178006002b90048
:1046b8008401780003014100833e20000300b80014
:1046c80001014100820078000001be0020fa2000ac
:1046d80092200700010037000000000003003700a7
:1046e8000000000001003700000000003041800099
:1046f8000080fa00000006000800fa003007980061
:104708002028ef000000eb00000f78000040eb00cd
:1047180040479800f0408000640060000000e0001e
:1047280008003a00f0408000680060000000e000e7
:1047380004003a00f0408000700060000000e000d3
:10474800030032002628ef003e0090007a2d070073
:104758003e009000700090000000e00002003a0067
:1047680030418000a100370030418000e20f500046
:1047780005003200e30f50004f003200e10f5000f7
:104788009800320094003700e07680004800de0090
:10479800f2768000f10f200081006100c808dd007a
:1047a80001007000c800dd004800de00008f7000c6
:1047b800f0408000610060000000e00038003a002e
:1047c80080f92000f41f07003e00900068004000b8
:1047d800e4004700120020007e2907001007980017
:1047e800ce40900000cfb30080c0600000c2b3008c
:1047f80080cf50001f003a003e009000b101070032
:104808003041880030418000e30f500016003a0024
:104818001e0078000000e000100032001aa8a8006e
:104828001e00e9008000eb00823e20000289b900ea
:10483800020178006002b900840178000301410098
:10484800833e20000300b800010141008200780087
:104858000001be0020fa20003020070040002000a0
:1048680000418800600037003000200000418800c7
:104878005d00370020002000004188004e41900074
:1048880021822000824878009e0090002141880003
:104898002628ef003e009000272d07005200370021
:1048a8002628ef003e009000232d0700100020006e
:1048b800004188004c0037003e009000680040002e
:1048c800e400470012002000422907002e00900053
:1048d8004400de006f4060000080fb00e90f5000dc
:1048e80019003200e90f500005003c00e30f5000aa
:1048f80031003200e40f500032003200340037003b
:10490800eb0f50001e003200ed0f50000100320086
:104918002f003700e0408000700060000000e000d9
:1049280008003200f0408000640060000000e000f1
:1049380004003a00c0fa2000971f07003e009000cc
:1049480007fd070023003700e04080006400600096
:104958000000e00009003200f040800068006000bc
:104968000000e00005003a0060fb20008a1f0700f5
:104978003e00900017fd0700304188001500370001
:10498800e0408000680060000000e000090032009c
:10499800f0408000700060000000e00005003a0070
:1049a80000fc20007c1f07003e00900065fd07000a
:1049b80030418800070037003e00900099fd07004d
:1049c800040037003e00900030fe07000100370069
:1049d800000000000400370070002000304188000b
:1049e8000100370000000000304180000080fa001c
:1049f800000006000400fa00100798000040eb00d1
:104a0800104798000040eb00004f78001e0090000f
:104a18009b2807001e0090006800400098280700a7
:104a28001e00900012002000e1ef20009f280700e0
:104a380050788000f1ef200050fc07008080fb00d8
:104a48001e00900001017800f1ef20009728070070
:104a58001e0090001200200041f02000932807005b
:104a68001e0090001200200031f020008f2807005f
:104a78000040eb00004f7800350037001e80fb0037
:104a88006500b90000007800e6004000e0ef200073
:104a9800008040000000e800800078001e009000c0
:104aa80022002000812807001e80fb006500b90055
:104ab80000007800e6004000e0ef200000804000a1
:104ac800904090008180fb00204090000080fb0017
:104ad8004800dd0000807000c800dd004800de00ee
:104ae800008070009e80fb006509b9008200780094
:104af80068814000e1ef20008100410011419000f1
:104b08000281fb00a14090008180fb00c808dd0005
:104b1800810071009e019000000178000300780078
:104b2800622807001e80fb006500b90000007800bd
:104b3800ea004000e0ef2000008040008000e8002c
:104b48001e00900012002000582807001e4fe800a1
:104b58001e4078000004e000c8ff32001e009000ec
:104b68005a2c0700104798001e4090000004e000ef
:104b7800070032001a68a9001c48a8001e68a9008e
:104b8800025327000300200060fb2000631f07007a
:104b98001e4090000080fa00000006000400fa00a1
:104ba800100798000040eb00104798000040eb0009
:104bb800004f78001e009000312807001e0090006a
:104bc800680040002e2807001e00900012002000f8
:104bd800c1f0200035280700b07880004800de00ca
:104be800c2788000f10f200081006100c808dd0054
:104bf80001007000d1f02000e0fb07008080fb007e
:104c08001e00900001017800d1f02000272807003d
:104c18001e0090001200200021f120002328070028
:104c28001e0090001200200011f120001f2807002c
:104c38000040eb00004f78002a0037001e80fb0080
:104c48004200dd00e6004000c0f020000080400087
:104c58000000e800800078001e009000220020007c
:104c6800122807001e80fb004200dd00e60040001d
:104c7800c0f020000080400090007800c808de00e6
:104c880010019000f00f2000000061004800dd00d6
:104c980000807000c800dd004800de000080700061
:104ca8009e80fb008180e8004209dd00c1f0200001
:104cb80081004100110178004811de009101900047
:104cc800f10f200081806100c808dd0081007100bb
:104cd8009e0190000001780003007800f327070088
:104ce8001e4fe8001e4078000004e000d3ff3200a9
:104cf8001e009000f52b0700104798001e409000fa
:104d08000004e000070032001a88a9001c68a80007
:104d18001e88a900025327000300200000fc200081
:104d2800fe1e07001e4090000080fa0000000600ea
:104d38000600fa00200798000040eb00004f7800ba
:104d48000e00e800220020008000eb00abee070018
:104d58002e009000ca2707002e009000680040002f
:104d6800c72707001e409000ef40600000ccb3004a
:104d780000c07000104798001e4090000034a10049
:104d8800104798009e40900090cfb30000c060008c
:104d9800104798001e4090000004a100104798009a
:104da8000040eb00204798002e0090008e00e8009d
:104db80012002000bd2707002e0090008e00e8009a
:104dc8008100e80012002000b82707002e0090009c
:104dd800be2b0700004f78001e4078000004e0005a
:104de800060032001aa8a9001c88a8000253270050
:104df80003002000c0fa2000c81e07001e407800eb
:104e08000080fa00000006000600fa00200798005b
:104e18000040eb00004f78000e00e8002200200060
:104e28008000eb0075ee07002e0090009427070025
:104e38002e00900068004000912707001e40900057
:104e4800ef40600000ceb30000c07000104798002b
:104e58001e4090000004a100104798009e4090005a
:104e680090cfb30000c06000104798001e4090002b
:104e78000034a100104798002e0090008e00e80032
:104e880012002000892707002e0090008e00e800fd
:104e98008100e80012002000842707002e009000ff
:104ea8008a2b0700004f78001e4078000004e000bd
:104eb800010032001a68ef001e4078000080fa00f6
:104ec800000006000800fa00300798005200200091
:104ed8008000eb000e00780048ee07003e009000ce
:104ee80068004000120020008e007800e8270700c4
:104ef8003e009000680040008e00e800120020008c
:104f0800e32707003e009000680040008e80e8001c
:104f180012002000de270700e30047003e00900053
:104f28006800400022002000d92707001e009000da
:104f38004800de002e019000f10f20008100610082
:104f4800c808dd00010070000000e00002003a001f
:104f580030002000010037000000eb000080fa005c
:104f6800000006001000fa0040479800310798003a
:104f7800024f980054079800650798007307980037
:104f88004e4090000000fb006c00b90080007800e3
:104f9800c0e4200000804000100798007e009000c8
:104fa8000000e0004f0032001e0090001000780062
:104fb8000000e0004b0032001e009000100090003e
:104fc8000000e000470032001e00900000489000fa
:104fd800e14f500043003a003e009000fe00900070
:104fe80021009800fe009000010f78001e0090003c
:104ff800900090007e009000808f500003003100e8
:105008001e00900090009000010f78001e00900094
:10501800100078009e017800000178005e00900082
:10502800ee009000822407000004e0002a003a0005
:105038001e009000900078003e0090000108780063
:105048009e0078003e009000110098003e009000fd
:10505800200090009e0050003e0090002100980023
:10506800604180000000e0000500320063418000dc
:105078003e0190008e4890004e40900003000100d1
:105088007e0090001e005000700798001e007800f7
:105098008000eb005e019000ee01900002004000ed
:1050a8008380480050079800610798001e00900010
:1050b800004890000004e00003003a007e009000e1
:1050c8000000e00006003a007e0090000000e000ca
:1050d800c4ff3a0003003700000000000100370059
:1050e800000000000080fa0000000600d000fa006e
:1050f80000cf990051a7980062a7980073a798005d
:105108008ec8910010c4b30080cf50000400320054
:105118008ec8910040c5b30080cf500014003a00fb
:105128007000470043002000000178006ea0900046
:10513800fea090003e2407000004e00088013a0029
:105148001e50900040579800604180000000e00029
:1051580085013200634180000e509000f400470042
:105168000101780011c0b300030001008f0137006e
:105178008ec8910020c4b30080cf500014003a00bc
:105188007600470043002000000178006ea09000e0
:10519800fea09000262407000004e00083013a00e6
:1051a8007e509000205f9800604180000000e00081
:1051b8007e013200634180006e509000fa00470083
:1051c8000101780021c0b300030001007701370016
:1051d8008ec8910030c4b30080cf500051003a000f
:1051e8007c004700c3002000000178006ea09000fa
:1051f800fea090000e2407000004e0006b013a00b6
:105208005e6090000004e000310035005e609000b0
:105218008001fb004e6090000000fb006c00b900ac
:1052280000007800e8004000c0e420000080400052
:10523800104190006c18b9008000780040e520000b
:1052480000804000124098005e6090000000fb0063
:105258006c00b9008000780040e520000080400024
:1052680011c0b300014878005e6090000000fb00a8
:10527800be109000688150006c00b9008000780072
:1052880020e520000080400002087800504180009e
:105298000000e80050418800504180000000e00014
:1052a80003003a00504180000000e80050418800a7
:1052b8005e6090000000fb00524180006c00b90065
:1052c8008000780000e52000008040000208780097
:1052d8005e609000006f9800200020005017980032
:1052e8007e089000601798000e1090009e109000a5
:1052f80070179800011f9800604180000000e000ce
:105308002a013200634180004e6090008102200033
:105318008e8040000101780041c0b3000300010005
:10532800220137008ec8910040c4b30080cf5000de
:10533800040032008ec89100b0c4b30080cf500082
:1053480024003a00a00320000e0040004300200083
:10535800000178006ea09000fea09000b423070022
:105368000004e00002013a002e789000607f980067
:105378003e789000707f98003e7890000004e0002e
:1053880009003a002e7890000000fb00ee1890000b
:10539800688150006c00b9008000780020e520008a
:1053a8000080400002087800604180000000e000b2
:1053b800f1003200634180002e789000e103200064
:1053c8008e8040000101780051c0b3000300010045
:1053d800f60037008ec89100a0c4b30080cf5000fb
:1053e80015003a00400820000e0040004304200049
:1053f800000178006ea09000fea090008c230700aa
:105408000004e000e9003a00704180000000e0007c
:10541800e6003200754180002ea09000bea09000ea
:10542800440820000e0242000001be00040078007b
:1054380005000100dd0037008ec8910060c4b3008c
:1054480080cf5000080032008ec8910080c4b3009d
:1054580080cf5000040032008ec89100d0c4b30041
:1054680080cf500060003a0060c0b300004f780061
:105478008ec8910080c4b30080cf500002003a006b
:1054880090c0b300004f780000012000300798005a
:10549800000420000e004000be01900000017800ca
:1054a8006ea09000fea09000612307000004e000b9
:1054b800b3003a000000eb0040079800cec8900007
:1054c800214f9800fe209000410798002e48900038
:1054d8000000fb006c00b9008000780060e5200047
:1054e800008040008040eb0001487800ce2090000a
:1054f80061079800de209000710798001e20900038
:10550800402f98002e209000be209000502f980029
:10551800612f98002e4890000000fb006c00b90035
:1055280000007800e4004000c0e420000080400053
:10553800900078004e009000808f500092003a0052
:105548006e0090000000e00018003400ee009000ab
:105558005ea09000808f5000140031007e00900003
:105568008000eb006ea19000fea1900002004000b8
:105578008380480060a7980071a79800ee0090000b
:1055880031079800000520000e004000be01900081
:105598006ea29000fea290001e4178008000780064
:1055a8002e4890006ffe070080003700ee00900044
:1055b800112f98000000eb00002f98006041800038
:1055c8000000e00072003200634180000005200006
:1055d8000e004000000178009e4078002e489000a0
:1055e80003000100710037008ec8910050c4b30059
:1055f80080cf5000080032008ec8910070c4b300fc
:1056080080cf5000040032008ec89100c0c4b3009f
:1056180080cf50002f003a0070c0b30010479800a8
:105628008ec8910070c4b30080cf500002003a00c9
:1056380080c0b30010479800800620000e0040008c
